:020000040000FA
:100000000002001071010000790100007B01000076
:100010007D0100007F010000810100000000000060
:10002000000000000000000000000000830100004C
:100030008501000000000000870100008901000028
:100040008B0100008B010000572E00008B01000087
:100050008B0100008B0100008B0100008B01000070
:100060008B0100008B0100008B0100008B01000060
:100070008B0100008B0100008B0100008B01000050
:100080008B0100008B0100008B0100008B01000040
:100090008B0100008B0100008B0100008B01000030
:1000A0008B0100008B0100008B0100008B01000020
:1000B0008B0100008B0100008B0100008B01000010
:1000C0008B0100008B0100008B01000000F002F8A2
:1000D00000F03FF80AA090E8000C82448344AAF1A3
:1000E0000107DA4501D100F034F8AFF2090EBAE8A1
:1000F0000F0013F0010F18BFFB1A43F0010318475C
:100100002039000050390000103A24BF78C878C167
:10011000FAD8520724BF30C830C144BF04680C600D
:10012000704700000023002400250026103A28BF55
:1001300078C1FBD8520728BF30C148BF0B60704759
:10014000642902F05B87002070471FB51FBD10B502
:1001500010BD03F09DF81146FFF7F7FF01F0A0FC7A
:1001600003F0BBF803B4FFF7F2FF03BC03F0C2F8DF
:100170000948804709480047FEE7FEE7FEE7FEE73B
:10018000FEE7FEE7FEE7FEE7FEE7FEE70448054977
:10019000034A054B704700002D040000CD0000000D
:1001A000C8C00720000200100000001010B50A4669
:1001B000202801D2034601E0A0F12003194620289F
:1001C00010D2454B1B6803248C40A343434CC4F816
:1001D000A831414B1B6802FA01F423433F4CC4F899
:1001E000A83111E03C4B1B1D1B6803248C40A3432A
:1001F0003A4CC4F8AC31384B1B1D1B6802FA01F4B1
:100200002343364CC4F8AC3110BD0146202903D23B
:100210000A46314B186804E0A1F120022E4B1B1D49
:10022000186820FA02F303F00300704770B5064621
:100230002B4804683046FFF7E8FF054635B1012D2D
:1002400006D0022D06D0032D08D105E0042505E0D7
:10025000012503E0022501E0082500BF00BFB4FB33
:10026000F5F4204670BD012909D11C4AC432126838
:100270001C4B03401A43194BC3F8C42009E041B991
:10028000164AC4321268174B83431A40134BC3F803
:10029000C420704700201149C031086030BF70474A
:1002A00004201149086008200C49C031086030BFA3
:1002B000704704200C49086009200849C0310860D3
:1002C00030BF704704200849086003200349C0314B
:1002D000086030BF70470000A8C10F4000C00F4049
:1002E00000C00720DEF7EFEF10ED00E07047704729
:1002F00070470A6802F8010B0A607047FFFFFFFFB2
:1003000097480068C0F3016003285DD194488430A9
:10031000006800F0030030B1012820D0022839D055
:10032000032850D100E000BF8D480068C0F30E00E4
:10033000401C40008B49484389498839D1F88810CE
:10034000C1F30741491CB0FBF1F185487C300068DE
:10035000C0B2401CB1FBF0F08349086033E0804834
:100360000068C0F30E00401C4000804948437C49AF
:100370008839D1F88810C1F30741491CB0FBF1F16D
:1003800077487C300068C0B2401CB1FBF0F0764981
:10039000086018E072480068C0F30E00401C0104B9
:1003A0006F488838D0F88800C0F30740401CB1FB84
:1003B000F0F16B487C300068C0B2401CB1FBF0F03B
:1003C0006949086000BF30E065488430006800F08B
:1003D000030030B1012810D0022819D0032823D1FE
:1003E00000E000BF5E487C300068C0B2401C5D4940
:1003F000B1FBF0F05C49086016E059487C300068B9
:10040000C0B2401C5949B1FBF0F0574908600BE0FD
:1004100053487C300068C0B2401C4FF40041B1FB2F
:10042000F0F05149086000BF00BF704720205049DC
:1004300008604B488838D0F8A00100F0200030B1A7
:1004400000BF4B48006800F040000028F9D00320AE
:1004500043497C310860002041498839C1F8A8012E
:1004600043490C31086001203D498431086041480E
:100470003B49091F0860AA203949091D0860552019
:1004800008600120364908390860AA203449091D4E
:100490000860552032498839C1F88C0000BF3048C7
:1004A000006800F080600028F9D003202C4908394A
:1004B0000860AA202A498839C1F88C0055202849AB
:1004C000091D086000BF2648006800F04070002841
:1004D000F9D0232022491C310860AA2020498839FC
:1004E000C1F8AC0055201E492431086001201C4988
:1004F00018310860AA201A4924310860552018498B
:100500008839C1F8AC0000BF15482030006800F4FD
:1005100080600028F8D00320114918310860AA2013
:100520000F498839C1F8AC0055200D4924310860C5
:1005300000BF0B482030006800F440700028F8D05D
:100540000D4807493C310860002005498839C1F849
:10055000C80143F23A00086000200849086070476B
:1005600088C00F4000093D0000C00720001BB700F5
:10057000A0C10F4063000500DE87280408ED00E0FD
:1005800001460020052912D2DFE801F00305080B1F
:100590000E00FB480CE0FA48203009E0F8484030F3
:1005A00006E0F748603003E0F548803000E000BF27
:1005B00000BF704701460020052912D2DFE801F094
:1005C0000305080B0E00EE480CE0ED48203009E072
:1005D000EB48403006E0EA48603003E0E84880300D
:1005E00000E000BF00BF704701460020052912D27D
:1005F000DFE801F00305080B0E00E1480CE0E048DD
:10060000203009E0DE48403006E0DD48603003E09D
:10061000DB48803000E000BF00BF70472DE9F041AB
:1006200007460D4616463846FFF7AAFF04463CB17A
:100630001EB120682843206002E02068A8432060A3
:10064000BDE8F08170B506460C463046FFF798FFCE
:10065000054605B1AC6170BD70B506460C46304626
:10066000FFF78EFF054605B1EC6170BD70B505461C
:100670002846FFF785FF04460CB1606970BD002075
:10068000FCE718B912B9BF4B196017E0022804D172
:100690001AB9BC4B2033196010E028B9012A03D1E4
:1006A000B84B1B1D196009E0022805D1012A03D1AE
:1006B000B44B2433196001E000BFFEE770470346E6
:1006C0003BB932B9AF480C380068C84000F00100AF
:1006D0007047022B07D132B9AA4814300068C840CD
:1006E00000F00100F4E743B9012A06D1A548083813
:1006F0000068C84000F00100EAE7022B08D1012A97
:1007000006D1A04818300068C84000F00100DFE7BB
:1007100000BFFEE718B99B4A121F116007E00228CC
:1007200003D1984A1C32116001E000BFFEE7704718
:1007300070B504460D461646324629462046FFF758
:100740006DFF70BD70B504460D4629462046FFF783
:1007500079FF70BD70B504460D4629462046FFF767
:100760007BFF70BD10B504462046FFF77FFF10BD2C
:1007700070B504460D461646324629462046FFF718
:1007800080FF70BD70B504460D46164632462946B8
:100790002046FFF794FF70BD10B503460C46214676
:1007A0001846FFF7B7FF10BD2DE9F04107460D468B
:1007B00016463846FFF7E4FE04463CB11EB12069F8
:1007C0002843206102E02069A8432061BDE8F08150
:1007D0002DE9F04180460E4615461F464046FFF77C
:1007E000E9FE04468CB147B11EB1608828436080A1
:1007F0000BE020882843208007E01EB16088A843D2
:10080000608002E02088A8432080BDE8F0812DE9C7
:10081000F04180460E4615461F464046FFF7CAFE89
:1008200004468CB147B11EB1608A284360820BE058
:10083000208A2843208207E01EB1608AA843608294
:1008400002E0208AA8432082BDE8F0812DE9F04132
:1008500007460E4614463846FFF7ACFE05461DB166
:100860000EB16C8300E02C83BDE8F0812DE9F041EE
:1008700007460E4614463846FFF79CFE05461DB156
:100880000EB1EC8300E0AC83BDE8F08170B50646A4
:100890000D463046FFF78EFE044624B10DB1E08AC6
:1008A00070BDA08AFCE70020FAE72DE9F041804600
:1008B0000C4616461F464046FFF796FE05465DB1BC
:1008C0002FB1032C08DC285D3043285504E0032CAD
:1008D00002DC285DB0432855BDE8F0812DE9F041E8
:1008E00080460C4616461F464046FFF77DFE0546ED
:1008F0009DB14FB1032C10DC05F11000005D3043B9
:1009000005F11001085508E0032C06DC05F1100084
:10091000005DB04305F110010855BDE8F0812DE9F7
:10092000F04107460C4615463846FFF75DFE064681
:1009300026B1032C02DC06F118000555BDE8F08154
:100940002DE9F04107460C4615463846FFF74CFEA8
:10095000064626B1032C02DC06F11C000555BDE855
:10096000F08170B506460C463046FFF73DFE054661
:1009700055B1032C08DC05F11400005D70BD0000CA
:1009800000C00920908002400020F7E7F0B504463F
:100990000B461546194660003B4A102901D3103911
:1009A000401C52F820604FEA410C032707FA0CF76D
:1009B000BE4342F8206052F820604F0005FA07F766
:1009C0003E4342F82060F0BDF0B504460B461546A4
:1009D000194660002C4A4032102901D31039401CBE
:1009E00052F820604FEA410C032707FA0CF7BE4388
:1009F00042F8206052F820604F0005FA07F73E43A6
:100A000042F82060F0BD30B50B461F496831012A1D
:100A100007D151F8204001259D402C4341F820404A
:100A200006E051F8204001259D40AC4341F82040AC
:100A300030BD012806D11449896A41F00801124AE3
:100A4000916206E028B91049896A21F008010E4A2E
:100A500091627047012800D1052201B90A220A4B90
:100A6000DA67704710B50446A27861782078FFF7FE
:100A70008DFFE27861782078FFF7A6FF2279617810
:100A80002078FFF7C0FF10BD00C0024070B50546DA
:100A900035B1012D09D0022D0CD0032D14D10EE05B
:100AA0000220FFF7C3FB04460EE00420FFF7BEFB65
:100AB000044609E02C20FFF7B9FB044604E02E2091
:100AC000FFF7B4FB044600BF00BF204670BD2DE910
:100AD000F04781460C464846FFF7D8FF00260546FA
:100AE00000232946A1FB047C06FB04C205FB03216D
:100AF000FB4A384602F0CEF905462846BDE8F087A5
:100B000001464FF0FF30B1F1402F01D100200DE040
:100B1000F44A914201D1012008E0F34A914201D107
:100B2000022003E0F14A914200D10320704770B5E2
:100B300005460C46B5F1402F08D0EA48854205D05D
:100B4000E948854202D0E948854200D103E0A62168
:100B5000E7A001F0F0F84CB1012C07D0022C05D031
:100B6000032C03D0042C01D0052C00D103E0A721D5
:100B7000DFA001F0E0F828680121A1400840C6B2DA
:100B80000EB1012070BD0020FCE770B505460C4693
:100B9000B5F1402F08D0D348854205D0D2488542D0
:100BA00002D0D248854200D103E0C421D0A001F098
:100BB000C2F84CB1012C07D0022C05D0032C03D075
:100BC000042C01D0052C00D103E0C521C8A001F000
:100BD000B2F82868211D01228A401040C6B20EB129
:100BE000012070BD0020FCE770B505460C46B5F14C
:100BF000402F08D0BB48854205D0BB48854202D073
:100C0000BA48854200D103E0DD21B9A001F093F894
:100C10004CB1012C07D0022C05D0032C03D0042C9E
:100C200001D0052C00D103E0DE21B1A001F083F852
:100C30000120A040286070BD70B505460C46B5F196
:100C4000402F08D0A748854205D0A748854202D04A
:100C5000A648854200D103E0F421A5A001F06BF87D
:100C60004CB1012C07D0022C05D0032C03D0042C4E
:100C700001D0052C00D103E0F5219DA001F05BF827
:100C8000201D01218140296070BD20B90A46012341
:100C90001370536003E00A460023537000BF70478F
:100CA0002DE9F04704460D461646B4F1402F08D012
:100CB0008C48844205D08C48844202D08B488442C0
:100CC00000D104E040F22B1189A001F034F81DB1ED
:100CD000012D01D000D000D104E04FF4967184A022
:100CE00001F029F8B4F1402F08D101210220FFF7CB
:100CF000BAFA00210220FFF759FA22E0794884422B
:100D000008D101210420FFF7AEFA00210420FFF7EB
:100D10004DFA16E07448844208D101218805FFF796
:100D2000A2FA00212C20FFF741FA0AE06F48844222
:100D300007D10121C805FFF796FA00212E20FFF701
:100D400035FAA06A20F00300A062A06AA062002029
:100D5000A0602061E060606840F002006060606850
:100D600020F00200606085B93746387818B9786895
:100D7000401EE06017E02046FFF7C2FE814679681A
:100D8000FFF7A5FE401EE0600DE0B046A06A20F02F
:100D90000C00A062464698F80100012803D1A06A21
:100DA00040F00400A0624FF0FF302060BDE8F08703
:100DB00010B50446B4F1402F08D04A48844205D00B
:100DC0004948844202D04948844200D104E040F2BC
:100DD000791147A000F0AFFF00206060B4F1402F10
:100DE00004D100210220FFF73EFA18E03D4884427A
:100DF00004D100210420FFF736FA10E03A4884427B
:100E000005D100214FF48000FFF72DFA07E03748A5
:100E1000844204D100214FF48000FFF724FA10BD72
:100E200070B504460D46B4F1402F08D02D488442D9
:100E300005D02D48844202D02C48844200D104E0E1
:100E40004FF4CD712AA000F076FF012D04D1606827
:100E500040F00100606003E0606820F00100606025
:100E600070BD10B50446B4F1402F08D01D4884422F
:100E700005D01D48844202D01C48844200D104E0C1
:100E80004FF4D9711AA000F056FF606840F00200DC
:100E90006060606820F00200606010BD70B50446BC
:100EA0000D46B4F1402F08D00E48844205D00E48BC
:100EB000844202D00D48844200D104E040F2D111B6
:100EC0000BA000F038FF287940B12879012805D01F
:100ED0002879022802D02879032829D12EE00000A1
:100EE00040420F00008000400000094000400940DF
:100EF0002E2E5C4C69627261726965735C4C435062
:100F0000313736385F5374645065726970685F4476
:100F100072697665725C736F757263655C6C706321
:100F2000313778785F74696D65722E630000000058
:100F30004FF4E971AFF2480000F0FDFE287830B1BF
:100F4000012807D0022808D003280CD108E0A8689F
:100F5000A0610AE0A868E06107E0A868206204E0F8
:100F6000A868606201E000BFFEE700BF6069297801
:100F700001EB41020721914088436061687838B1F4
:100F80006069297801EB41020121914008436061C9
:100F9000E87840B16069297801EB4101491C0122E0
:100FA0008A4010436061A87840B16069297801EBFC
:100FB0004101891C01228A4010436061E06B29785D
:100FC000042202EB4102032191408843E063287927
:100FD00000F003002978042202EB41018840E16B14
:100FE0000843E06370BD70B504460E461546B4F183
:100FF000402F08D04348844205D04348844202D061
:101000004248844200D105E040F20721AFF22010AF
:1010100000F091FE36B1012E06D0022E06D0032E2E
:1010200008D105E0A56107E0E56105E0256203E080
:10103000656201E000BFFEE700BF70BD70B5044609
:101040000D46B4F1402F08D02E48844205D02E48DA
:10105000844202D02D48844200D105E040F22D2187
:10106000AFF2741000F067FEA06A297801EB41022C
:10107000072191408843A062687838B1A06A297836
:1010800001EB4102012191400843A062A87840B1E0
:10109000A06A297801EB4101491C01228A401043D2
:1010A000A062E87840B1A06A297801EB4101891C6F
:1010B00001228A401043A06270BD70B504460D46FF
:1010C000B4F1402F08D00F48844205D00E48844226
:1010D00002D00E48844200D105E04FF41271AFF205
:1010E000F01000F028FE0DB1012D00D105E040F216
:1010F0004921AFF2042000F01EFE0DB9E06A70BD78
:10110000206BFCE7008000400000094000400940DF
:101110002DE9F04704468846F648844202D0F64856
:10112000844200D103E04321F4A000F004FEF14822
:10113000844204D12A20FFF779F8074609E0EE48F7
:10114000844204D11420FFF771F8074601E0BDE89E
:10115000F08700254FF0FF3902260AE0681C704333
:10116000B7FBF0F9C14504D96D1CFF2D01D900254D
:10117000B61CC145F2D82068C0B2206020684FF686
:10118000FF7101EA052108432060F0B2206100BF31
:10119000DDE770B504460D46D648844202D0D648F5
:1011A000844200D103E08121D4A000F0C4FDD148E5
:1011B000844204D101214805FFF755F808E0CE48E4
:1011C000844204D101210015FFF74DF800E070BD05
:1011D000A88829890843298A08432988084386B2B0
:1011E0002660287B00F00F06666020466969FFF7DD
:1011F0008FFF00BFEBE710B50446BE48844202D023
:10120000BD48844200D103E0A821BCA000F093FDBA
:10121000B848844205D100214FF40010FFF723F8AD
:1012200006E0B548844203D100210015FFF71BF802
:1012300010BD10B50446AF48844202D0AE48844287
:1012400000D103E0C021ADA000F075FD206800F0E2
:101250000F0010BD002141608160B7494161072145
:1012600001600021C1600161704770B504460D4600
:10127000A048844202D0A048844200D103E0E52186
:101280009EA000F058FD0DB1012D00D103E0E62134
:101290009AA000F050FD012D04D1606840F00200DA
:1012A000606003E0606800F00D00606070BD70B5C4
:1012B00004460D468F48844202D08F48844200D1B4
:1012C00003E0FE218DA000F036FD0DB1012D00D10F
:1012D00003E0FF2189A000F02EFD012D04D16068FC
:1012E00040F00100606003E0606800F00E006060A4
:1012F00070BD70B504460D467E48844202D07E48DB
:10130000844200D104E04FF48D717CA000F013FD05
:101310000DB1012D00D104E040F21B1177A000F0C7
:101320000AFD012D04D1606800F00700606003E051
:10133000606840F00800606070BD70B504460D46FE
:101340006C48844202D06C48844200D104E04FF4DF
:101350009A716AA000F0EFFCA8B2A06070BD10B551
:1013600004466448844202D06348844200D104E0C9
:101370004FF4A27161A000F0DEFCA06880B210BD45
:101380002DE9F74F82B006460C460020E060606011
:10139000606103E03046FFF7E2FF0746F06800F0C7
:1013A00004000028F6D1032030623046FFF741FFE9
:1013B000082801DD012500E00025049800287AD1E5
:1013C00025B9D4F80890D4F800A003E0D4F808B008
:1013D0002068019060E0F06800F0020010B321691D
:1013E000606888422AD0206888B93DB9FF2130461C
:1013F000FFF7A3FF6068401C60601FE04FF6FF71BD
:101400003046FFF79AFF6068801C606016E055B9AF
:101410009AF800103046FFF790FF0AF1010A606861
:10142000401C60600AE0019801883046FFF785FFA4
:101430000198801C01906068801C6060D6F818805C
:1014400008F0010038B148F4007060614FF0FF30DF
:1014500005B0BDE8F08F17E03046FFF780FF074684
:10146000A06848B125B989F8007009F1010903E0C5
:10147000ABF800700BF1020B1DB9E068401CE06096
:1014800002E0E068801CE060F06800F0040018B141
:10149000D4E903018842DFD12169606888429AD18A
:1014A000D4E90301884296D14FF4807060612068CE
:1014B00010B16068CCE705E0A06808B1E068C7E754
:1014C0000020C5E7049801287ED176E02068A8BBFB
:1014D0003DB9FF213046FFF730FF6068401C606077
:1014E00041E04FF6FF713046FFF727FF6068801C30
:1014F000606038E000800840000003402E2E5C4C05
:1015000069627261726965735C4C43503137363879
:101510005F5374645065726970685F447269766580
:10152000725C736F757263655C6C70633137787869
:101530005F7373702E63000040420F00FFE74DB9E8
:10154000D4E90002815C3046FFF7F7FE6068401C7A
:10155000606008E0D4E90002815A3046FFF7EDFEF2
:101560006068801C6060D6F8188008F0010028B11F
:1015700048F4007060614FF0FF3069E715E03046D5
:10158000FFF7EDFE0746A06838B11DB9D4E9021295
:101590008F5402E0D4E902128F521DB9E068401C5A
:1015A000E06002E0E068801CE060F06800F00400A9
:1015B00018B1D4E903018842E1D1F06800F00200DB
:1015C00030B12169606800E012E088427FF47EAFAC
:1015D000D4E90301884203D121696068884202D0BE
:1015E0000F20706102E04FF48070606100202FE7EF
:1015F0004FF0FF302CE770B505460C467648854223
:1016000002D07648854200D105E04FF40571AFF273
:10161000141000F090FB012C07D0022C05D0042CF4
:1016200003D0082C01D0102C00D105E040F2152188
:10163000AFF2381000F07FFBE868204008B10120CD
:1016400070BD0020FCE770B504460D4616466248A2
:10165000844202D06148844200D105E04FF40B710E
:10166000AFF2681000F067FB012E03D160692843D8
:10167000606104E060690F21A9430840606170BDAA
:1016800070B505460C465448854202D05348854201
:1016900000D105E040F24921AFF2A01000F04BFB71
:1016A000012C05D0022C03D0042C01D0082C00D131
:1016B00005E040F24A21AFF2BC1000F03CFBA86903
:1016C000204008B1012070BD0020FCE710B50446A1
:1016D0004148844202D04148844200D105E04FF4A1
:1016E0001671AFF2E81000F026FBA06910BD70B5CE
:1016F00005460C463848854202D03848854200D11C
:1017000005E040F26D21AFF20C2000F014FB012C3B
:1017100005D0022C03D0042C01D0082C00D105E008
:1017200040F26E21AFF22C2000F005FBE86920406A
:1017300008B1012070BD0020FCE770B504460D46DD
:101740002548844202D02548844200D105E040F279
:101750008121AFF2582000F0EEFA012D01D0022DC8
:1017600000D105E040F28221AFF2702000F0E3FAF0
:10177000256270BD70B504460D4616461648844273
:1017800002D01648844200D105E040F29721AFF222
:10179000942000F0D0FA022D01D0012D00D105E0F7
:1017A0004FF42671AFF2AC2000F0C5FA0EB1012E55
:1017B00000D105E040F29921AFF2C02000F0BBFA61
:1017C000012E03D1606A2843606204E0606A03214D
:1017D000A9430840606270BD0080084000000340DB
:1017E00010B5FE48406840F48000FC494860084657
:1017F000406840F08070486000224FF44061022051
:10180000FEF70CFF10BD1FB5F5A1F94801F0BAFBBA
:101810001F204FF6FF73F64A0A210090202001F0A6
:1018200056F8F4A1F24801F0ADFB1F204FF6FF730C
:10183000EF4A1E210090202001F049F8F14800886D
:10184000002101220223CDE90032CDE902104A2312
:101850001A463C210A2001F08EF8EA48408800210F
:1018600001220223CDE90032CDE902104A231A46B3
:101870003C21542001F07FF8E248808800210122B9
:101880000223CDE90032CDE902104A231A463C2159
:101890009E2001F070F8DB48C0880021012202235D
:1018A000CDE90032CDE902104A231A4686210A20EA
:1018B00001F061F8D3480089002101220223CDE91B
:1018C0000032CDE902104A231A468621542001F045
:1018D00052F8CC484089002101220223CDE9003290
:1018E000CDE902104A231A4686219E2001F043F8D2
:1018F000C4488089002101220223CDE90032CDE9CC
:1019000002104A231A46D0210A2001F034F8BD48BB
:10191000C089002101220223CDE90032CDE9021065
:101920004A231A46D021542001F025F8B548008AF0
:10193000002101220223CDE90032CDE902104A2321
:101940001A46D0219E2001F016F81FBDAE49098825
:101950001F290ED1AB4931F810104FF6FF7291429A
:1019600007D14FF47841A74A22F81010A64A1180F7
:101970000CE0A44931F810104FF6FF72914205D1E6
:101980001F21A04A22F810109F4A118070471FB5EE
:101990009C4800884FF6FF71884230D099480088F3
:1019A0009849498888422AD196480088954989886B
:1019B000884224D1934800881F2804D193A18C48E1
:1019C00001F0E0FA03E096A1894801F0DBFA4FF656
:1019D000FF70002101220223CDE90032CDE902107F
:1019E000C8231A4678210A2000F0C5FF1F204FF6B1
:1019F000FF737F4A64210090202000F068FF814837
:101A0000C0884FF6FF71884221D07E48C0887D494A
:101A1000098988421BD17B48C0887A494989884214
:101A200015D17848C0881F2804D178A1704801F0EA
:101A3000A9FA03E07AA16E4801F0A4FA1F204FF63C
:101A4000FF736B4A14210090202000F040FF6D4886
:101A500080894FF6FF71884221D06A4880896949A0
:101A6000C98988421BD1674880896649098A8842AA
:101A700015D1644880891F2804D164A15C4801F015
:101A800081FA03E066A15A4801F07CFA1F204FF664
:101A9000FF73574A14210090202000F018FF1FBD4B
:101AA000FFF79EFE4FF47840574908804FF6FF70CD
:101AB0005449088048808880C8800881488188818E
:101AC000C881088200F05BFA01F082F9FFF79BFE03
:101AD00000F0DCFF2EE1584800783128FAD13020A0
:101AE0005549087001F0D4F854480088B0F5167FC5
:101AF00014DD52480088B0F5AF6F0FDC5048008805
:101B0000B0F57A7F0ADD4E480088B0F5C86F05DC75
:101B10000020FFF71BFFFFF776FE09E1474800882A
:101B2000B0F5AF6F15DD4548008840F69801884252
:101B30000FDC43480088B0F57A7F0ADD4048008812
:101B4000B0F5C86F05DC0120FFF700FFFFF75BFE73
:101B5000EEE03A480088B0F5166F15DD374800888A
:101B600040F6485188420FDC35480088B0F57A7F4E
:101B70000ADD33480088B0F5C86F05DC0220FFF7A6
:101B8000E5FEFFF740FED3E02C480088B0F5167F55
:101B900014DD2A480088B0F5AF6F0FDC28480088B4
:101BA000B0F5C86F0ADD26480088B0F5166F05DC71
:101BB0000320FFF7CBFEFFF726FEB9E01F480088A1
:101BC000B0F5AF6F4ADD1D48008840F698018842A5
:101BD00044DC1B480088B0F5C86F33E000C0024009
:101BE00053636F726520426C6575203A20300000A7
:101BF00020C0072053636F726520526F75676520A0
:101C00003A2030003EC007201AC007204A6F756591
:101C1000757220426C65752061206761676E650092
:101C20004A6F7565757220526F7567652061206710
:101C300061676E650000000010C0072004C0072027
:101C400006C007200ADD3D480088B0F5166F05DCA8
:101C50000420FFF77BFEFFF7D6FD69E038480088D7
:101C6000B0F5166F15DD3648008840F648518842B9
:101C70000FDC32480088B0F5C86F0ADD2F480088B5
:101C8000B0F5166F05DC0520FFF760FEFFF7BBFD22
:101C90004EE02B480088B0F5167F14DD28480088F8
:101CA000B0F5AF6F0FDC25480088B0F5166F0ADD80
:101CB00022480088B0F5486F05DC0620FFF746FE95
:101CC000FFF7A1FD34E01E480088B0F5AF6F15DDC9
:101CD0001B48008840F6980188420FDC17480088AE
:101CE000B0F5166F0ADD15480088B0F5486F05DCC1
:101CF0000720FFF72BFEFFF786FD19E0104800884C
:101D0000B0F5166F14DD0E48008840F64851884241
:101D10000EDC0A480088B0F5166F09DD0748008818
:101D2000B0F5486F04DC0820FFF710FEFFF76BFDED
:101D3000FFF72DFECFE600BFFEE7000006C007203C
:101D400004C00720000200BF011EA0F10100FBD16A
:101D5000704710B501224FF470010020FEF7E8FC37
:101D600001224FF060711046FEF7E2FC4FF4700163
:101D70000020FEF7E7FC4FF060710120FEF7E2FC67
:101D800010BD10B5222001F01FFB10BD10B5044698
:101D90004FF48000FE49C86180108861204601F040
:101DA000B7FA4FF40000FA49C861012001F002FBC4
:101DB0004FF40000F64988614010886110BDF54875
:101DC0000088704730B5014601F01F04C1F3451388
:101DD000CA0AE50205EB43151544A8B230BD70B53B
:101DE00004460D46EB48008848F68911884207D121
:101DF000A1B24E2001F008FBA9B24F2001F004FB74
:101E0000A1B2202001F000FBA9B2212001F0FCFAD0
:101E100070BD70B504460D4629462046FFF7DFFF2A
:101E2000FFF7AFFF01F08AFA064601F087FA06468F
:101E3000304670BD70B50546002400210846FFF706
:101E4000CEFFFFF79EFF00BF03E02846FFF79EFF8F
:101E5000641CB4F5963FF8D370BD10B5CD4800882A
:101E600048F68911884205D146F23001112001F06F
:101E7000CBFA04E041F23001032001F0C5FA002161
:101E80000846FFF7ACFFFFF77CFF45F25550FFF720
:101E90007DFF4AF6AA20FFF779FF00210846FFF7E9
:101EA0009EFF10BD2DE9F041BA48008848F689111F
:101EB000884204D041F23001032001F0A5FA002548
:101EC00000210846FFF78BFFFFF75BFF002405E0CA
:101ED0002846FFF75BFF681C85B2641CB4F5963F8B
:101EE000F6D30025AB48008849F22031884209D05A
:101EF000A8480088491D884204D0A6480088C91C0B
:101F0000884219D1002413E000260EE02146304615
:101F1000FFF77FFF0746FFF755FF29466A1C95B27A
:101F2000884201D0BDE8F081761CF02EEED3641C0F
:101F3000B4F5A07FE8D320E09648008844F2315100
:101F4000884205D09348008848F68911884214D108
:101F500000240FE000260AE021463046FFF759FF33
:101F600029466A1C95B2884200D0DBE7761CF02E29
:101F7000F2D3641CB4F5A07FECD300BFD2E770B5F8
:101F8000FFF7E7FE40F2DC50FFF7DCFE00242046BE
:101F900001F01AFA01F0D2F9054600BF7D4805802C
:101FA000008844F23151884221D07A48008847F2B3
:101FB000837188421BD07748008849F220318842DB
:101FC00015D074480088491D884210D07148008897
:101FD000C91C88420BD06F480088B0F5134F06D05B
:101FE0006C48008848F68911884200D070BD694865
:101FF000008849F22531884204D066480088C91C0F
:1020000088427DD11021E72001F0FEF90121002056
:1020100001F0FAF94FF48071012001F0F5F94FF465
:10202000E061022001F0F0F941F22801032001F003
:10203000EBF90021042001F0E7F940F20721082024
:1020400001F0E2F90021092001F0DEF900210A2067
:1020500001F0DAF901210C2001F0D6F900210D2060
:1020600001F0D2F900210F2001F0CEF9002110205B
:1020700001F0CAF90721112001F0C6F90021122050
:1020800001F0C2F90021132001F0BEF90F20FFF783
:1020900059FE41F29051102001F0B6F940F227218B
:1020A000112001F0B1F90F20FFF74CFE9C21122006
:1020B00001F0AAF90F20FFF745FE4FF4C851132095
:1020C00001F0A2F92321292001F09EF90E212B20F5
:1020D00001F09AF90F20FFF735FE0021202001F0D2
:1020E00093F90021212001F08FF90F20FFF72AFE3C
:1020F0000721302001F088F940F20771312000E01B
:102100008BE001F081F90621322001F07DF940F2E7
:102110000471352001F078F941F60471362001F0A0
:1021200073F90421372001F06FF90021382001F004
:102130006BF940F20671392001F066F940F2017145
:102140003C2001F061F90F213D2001F05DF90F20E5
:10215000FFF7F8FD0021502001F056F9EF21512042
:1021600001F052F90021522001F04EF940F23F11E6
:10217000532001F049F94FF42741602001F044F960
:102180000121612001F040F900216A2004E00000F3
:1021900000C009201CC0072001F036F90021802072
:1021A00001F032F90021812001F02EF90021822076
:1021B00001F02AF90021832001F026F90021842072
:1021C00001F022F90021852001F01EF91021902054
:1021D00001F01AF90021922001F016F90321932051
:1021E00001F012F94FF48871952001F00DF90021EA
:1021F000972001F009F90021982001F005F940F23B
:102200003311072001F000F90021202001F0FCF833
:102210000021212001F0F8F812E3FC48008849F27F
:102220002031884204D0F9480088B0F5134F7DD1A1
:102230000021084601F0E8F80021012001F0E4F84F
:102240004FF4E061022001F0DFF841F218010320B1
:1022500001F0DAF80021042001F0D6F840F2022162
:10226000082001F0D1F80021092001F0CDF800216B
:102270000A2001F0C9F801210C2001F0C5F8002165
:102280000D2001F0C1F800210F2001F0BDF80F2052
:10229000FFF758FD40F20111072001F0B5F80F20BB
:1022A000FFF750FD4FF48651102001F0ADF80721E3
:1022B000112001F0A9F84FF48871122001F0A4F860
:1022C0004FF43061132001F09FF80021292001F024
:1022D0009BF844F210012B2001F096F800215020C9
:1022E00001F092F8EF21512001F08EF800215220E8
:1022F00001F08AF840F23F11532001F085F84FF4C5
:102300002741602001F080F80121612001F07CF874
:1023100000216A2001F078F80021802001F074F893
:102320000021812001F070F8002100E02DE08220E2
:1023300001F06AF80021832001F066F80021842072
:1023400001F062F80021852001F05EF81021902054
:1023500001F05AF80021922001F056F80121932053
:1023600001F052F84FF48871952001F04DF80021EA
:10237000972001F049F80021982001F045F840F23B
:102380007311072001F040F85AE2A048008844F297
:10239000315188427DD10121002001F035F84FF400
:1023A000C561102001F030F80621122001F02CF850
:1023B00040F63221132001F027F84021112001F0CE
:1023C00023F85021152001F01FF81621122001F0EA
:1023D0001BF80F20FFF7B6FC45F26061102001F0FA
:1023E00013F80F20FFF7AEFC42F64E21132001F048
:1023F0000BF80021012001F007F84FF44071022092
:1024000001F002F841F23001032000F0FDFF40F23C
:102410000221082000F0F8FF00210A2000F0F4FF5C
:102420000021302000F0F0FF40F20241312000F0A6
:10243000EBFF4FF48371322000F0E6FF4FF4E061D0
:10244000332000F0E1FF4FF48271342000F0DCFF14
:1024500040F20131352000F0D7FF40F207713620FD
:1024600000F0D2FF40F20531372000F0CDFF4FF4ED
:102470000271382000F0C8FF40F60B71392000F0DF
:10248000C3FF0F20FFF75EFC0221412000F0BCFFDC
:1024900000E037E04FF42741602000F0B5FF012154
:1024A000612000F0B1FF40F21911902000F0ACFF64
:1024B0004FF48571922000F0A7FF0421932000F0D3
:1024C000A3FF4FF48071A02000F09EFF0F20FFF7C4
:1024D00039FC0F20FFF736FC0F20FFF733FC0F20ED
:1024E000FFF730FC40F23311072000F08DFF0F2082
:1024F000FFF728FC0021A02000F086FF1420FFF742
:1025000021FC9DE14148008847F2837188427CD1DB
:102510000121FF2000F078FF0821F32000F074FF74
:102520004FF48071012000F06FFF4FF4E061022052
:1025300000F06AFF41F23001032000F065FF40F235
:102540000231082000F060FF40F20721082000F06F
:102550005BFF0021092000F057FF00210A2000F056
:1025600053FF0021102000F04FFF0521112000F043
:102570004BFF0021122000F047FF0021132000F044
:1025800043FF1420FFF7DEFB41F2B021102000F0E2
:102590003BFF1420FFF7D6FB0721112000F034FF8A
:1025A0001420FFF7CFFB8B21122000F02DFF142009
:1025B000FFF7C8FB4FF4B851132000F025FF14209B
:1025C000FFF7C0FB2221292000F01EFF0021302050
:1025D00000F01AFF40F20771312000F015FF40F2C1
:1025E0000551322000F010FF40F20711352000F0B5
:1025F0000BFF0821362000F007FF0021372000F0F4
:1026000003FF40F20221382002E040E01CC0072016
:1026100000F0FAFE4FF48371392000F0F5FE40F22D
:1026200002213C2000F0F0FE4FF481613D2000F0DB
:10263000EBFE1420FFF786FB0021502000F0E4FEA3
:10264000EF21512000F0E0FE0021522000F0DCFEDE
:1026500040F23F11532000F0D7FE4FF42741602095
:1026600000F0D2FE0121612000F0CEFE3321902047
:1026700000F0CAFE0B212B2000F0C6FE40F2331101
:10268000072000F0C1FE1420FFF75CFBD8E0714882
:10269000008848F689118842F8D12121072000F0EE
:1026A000B3FE0121002000F0AFFE2321072000F03F
:1026B000ABFE0021102000F0A7FE40F6B830FFF777
:1026C00041FB3321072000F09FFE46F270011120EC
:1026D00000F09AFE4FF4C061022000F095FE40F633
:1026E0000401032000F090FE00210C2000F08CFE7D
:1026F00040F60C010D2000F087FE4FF424510E200F
:1027000000F082FEB8211E2000F07EFE42F63F312E
:10271000012000F079FE0021102000F075FE00215C
:10272000052000F071FE0021062000F06DFE4EF63F
:102730001C71162000F068FE0321172000F064FED3
:1027400040F23321072000F05FFEC0210B2000F093
:102750005BFE00210F2000F057FE0021412000F019
:1027600053FE0021422000F04FFE0021482000F0DF
:102770004BFE40F23F11492000F046FE00214A2066
:1027800000F042FE00214B2000F03EFE4FF46F416E
:10279000442000F039FE0021452000F035FE40F2D3
:1027A0003F11462000F030FE40F20771302000F06B
:1027B0002BFE4FF40171312000F026FE4FF4017121
:1027C000322000F021FE40F20251332000F01CFEC6
:1027D00040F20751342000F017FE4FF4017135200C
:1027E00000F012FE4FF40171362000F00DFE40F2B1
:1027F0000251372000F008FE40F202313A2000F08A
:1028000003FE40F202313B2000F0FEFD00212320B8
:1028100000F0FAFD0021242000F0F6FD4FF4004105
:10282000252000F0F1FD00214F2000F0EDFD0021FA
:102830004E2000F0E9FDFFF710FB1F20FFF7FAFA2A
:10284000FFF70BFBFFF72EFB1F20FFF7F3FA00BF8C
:10285000FFF7CCBB1CC007202DE9F84F05460E46FC
:10286000174698460095B14600242CE0A7F12000B9
:10287000244901EB001010F804A049460098FFF726
:10288000AEFA09F101001FFA80F9FFF77AFA4FF06A
:10289000000B13E00AF0800020B11FFA88F0FFF768
:1028A00075FA03E00A9988B2FFF770FA4FEA4A60B6
:1028B0004FEA106A0BF1010000F0FF0BBBF1080FAB
:1028C000E8DB601CC4B2102CD0DBBDE8F88F2DE92A
:1028D000F84305460E4614461F46DDF820800BE0FF
:1028E000CDF8008022783B4631462846FFF7B4FFFA
:1028F000641C05F1080085B220780028F0D1BDE8FD
:10290000F88300001C3400002DE9F05F81460D467D
:1029100017469846DDE90AABBAF1760F14D12C467A
:102920000EE021464846FFF75AFAFFF72AFA00263A
:1029300003E05846FFF72AFA761C4645F9D9641C8D
:10294000E819A042EDD214E02C460EE0214648469C
:10295000FFF745FAFFF715FA002603E05846FFF7A0
:1029600015FA761CBE42F9D9641C05EB0800A0429A
:10297000ECD2BDE8F09F2DE9FC5F07468846914602
:102980001D46DDE90E4BDDE90C6ABAF1010F08D1F5
:1029900068202B464A464146CDE9000B3846FFF7F2
:1029A000B3FF682033464A464146CDE90004384625
:1029B000FFF7AAFF762007EB0901CDE90004881B89
:1029C00033462A464146FFF79FFF6820CDE90004C1
:1029D00008EB0500811B33464A463846FFF794FF53
:1029E000762033462A464146CDE900043846FFF7B3
:1029F0008BFFBDE8FC9F000011B581B00120EB49C1
:102A0000086101A808600022E948FEF7B9FCC4B2D9
:102A10002CB1E649C1F808D09DF800001CBD00208B
:102A2000FCE700B589B000208DF81C0002208DF86D
:102A30001E0000208DF81F008DF8200007208DF863
:102A40001D0007A8FEF70EF808208DF81D0007A846
:102A5000FEF708F809208DF81D0007A8FEF702F818
:102A60000820019000200290039004900590D14826
:102A7000069001A8FEF7EEFB01A9CD48FEF789FB01
:102A80000121CB48FEF7F1FB09B000BD1CB50020C9
:102A90008DF802008DF804008DF8030013208DF8E6
:102AA000010000208DF800006846FDF7DBFF0022E2
:102AB0004FF400211046FDF7B1FD0122D1040020A2
:102AC000FDF7DFFD012240210020FDF7A7FD402199
:102AD0000020FDF7B7FDFFF7A4FF012240210020F1
:102AE000FDF79CFD40210020FDF7B6FD8020FFF79B
:102AF00083FF012240210020FDF790FD40210020AE
:102B0000FDF7A0FD1CBD2DE9F04196B0B5E0002415
:102B10003EE0012240210020FDF780FD4021002001
:102B2000FDF79AFDD020FFF767FF0020FFF764FF55
:102B30004006000D11A921F814009020FFF75CFF5A
:102B400011A931F8141041EAE00011A921F814008C
:102B50000020FFF751FF4006000D0CA921F81400DA
:102B60000020FFF749FF0CA931F8141041EAE000FA
:102B70000CA921F814008020FFF73EFF012240211C
:102B80000020FDF74BFD40210020FDF75BFD641C9C
:102B90000A2CBED34FF6FF731D46002600270021E6
:102BA0000022002032E00DF1440C3CF810C09C459E
:102BB00003D20DF1440C3CF810300DF1440C3CF8FC
:102BC00010C0B44503D90DF1440C3CF810600DF170
:102BD000440C3CF810C061440DF1300C3CF810C0BE
:102BE000AC4503D20DF1300C3CF810500DF1300C17
:102BF0003CF810C0BC4503D90DF1300C3CF8107006
:102C00000DF1300C3CF810C06244401C0A28CAD3B5
:102C1000A1EB030CACEB0601A2EB050CACEB07023D
:102C2000C1F3CF0CDFF89081A8F800C0C2F3CF0C3D
:102C3000DFF88881A8F800C05F48028860A107A873
:102C400000F0A0F9404602885FA102A800F09AF9BE
:102C50001F2047F6FF7307AA4FF4917100900020E0
:102C6000FFF735FE1F2047F6FF7302AA4FF491715C
:102C700000907820FFF72BFE00BF0020FDF7F6FC48
:102C800000F4002000283FF442AF16B0BDE8F08108
:102C90002DE9F0418AB000243BE0012240210020D0
:102CA000FDF7BCFC40210020FDF7D6FCD020FFF74B
:102CB000A3FE0020FFF7A0FE4006000D05A921F8A5
:102CC00014009020FFF798FE05A931F8141041EA8E
:102CD000E00005A921F814000020FFF78DFE400652
:102CE000000D2DF814000020FFF786FE3DF81410AB
:102CF00041EAE0002DF814008020FFF77DFE01225C
:102D000040210020FDF78AFC40210020FDF79AFCBD
:102D1000641C0A2CC1D34FF6FF731D460026002702
:102D200000210022002028E00DF1140C3CF810C016
:102D30009C4503D20DF1140C3CF810300DF1140C2D
:102D40003CF810C0B44503D90DF1140C3CF81060E8
:102D50000DF1140C3CF810C061443DF810C0AC45B6
:102D600001D23DF810503DF810C0BC4501D93DF8E6
:102D700010703DF810C06244401C0A28D4D3A1EB67
:102D8000030CACEB0601A2EB050CACEB0702C1F3A4
:102D9000CF0CDFF82480A8F800C0C2F3CF0CDFF816
:102DA0001C80A8F800C00AB0BDE8F08150C0072020
:102DB00000000340801A060004C0072006C0072058
:102DC000583A202530346400593A202530346400C4
:102DD00010B588B0002402200121814042099200F0
:102DE00002F1E022C2F8001100BF01208DF81800A6
:102DF0001C208DF8190003208DF81A0000208DF892
:102E00001B008DF81C0006A8FDF72CFE01208DF894
:102E100010004FF4FA70059004AA00211948FDF73C
:102E20003FFF00208DF8080001208DF805000020EC
:102E30008DF806008DF804000520039001208DF820
:102E4000070001A90F48FEF729F801210D48FDF7F9
:102E5000E7FF08B010BD0C480068401C0A49086034
:102E6000084600680A2809D1002008600748406920
:102E7000C0F3C04010B93120054908700120014954
:102E800008607047008000400CC0072000C0092087
:102E900010C0072053EA020C00F069802DE9F04BC6
:102EA0004FF00006002B1FBFB3FA83F503FA05F4B9
:102EB00024FA05F65E4012BF1643B2FA82F502FA12
:102EC00005F4C5F120051EBF22FA05FC44EA0C04F6
:102ED000203556EA044C4FEA144418BF641C4FF0E6
:102EE00000084FF00009904271EB030C39D3002920
:102EF00019BFB1FA81F701FA07F6B0FA80F700FAC4
:102F000007F6C7F120071EBF20FA07FC46EA0C06A9
:102F10002037B6FBF4FCA7EB0507103F07F01F0BAB
:102F2000CBF120060CFA0BFB2CFA06F644BFB34695
:102F30000026202FA4BF5E464FF0000B5BEA060C74
:102F400008BF4FF0010B19EB0B09ABFB027C48EB00
:102F50000608C01B06FB02CC0BFB03CC71EB0C017B
:102F6000C1E70B46024641464846BDE8F08B13B523
:102F70004FF000004FF00001AFF30080BDE81C40AF
:102F8000704700000FB41CB5074B06AA7B44694686
:102F90000090059800F069F900206946FDF7A9F94D
:102FA0001CBC5DF814FB000063D3FFFF70B5044642
:102FB00085690068C10601D5302600E02026C007DB
:102FC00007D070BDD4E9012130469047206A401CEB
:102FD00020626D1EF6D570BD70B504468569007817
:102FE000C00707D170BDD4E9012120209047206A95
:102FF000401C20626D1EF6D570BD00002DE9F04129
:103000000646002410687529314616A510D0AFF386
:103010000080002802DA404213A507E031688A07E1
:1030200001D512A502E0490704D511A5012401E04C
:10303000AFF3008000210A2206F1240709E0B0FB6B
:10304000F2FCB0FBF2F302FB1C003030785418465F
:10305000491C0028F3D123462A463046BDE8F041FA
:1030600000F0A4B8000000002D0000002B000000BC
:10307000200000002DE9F05F894604464FF0000A69
:10308000DFF824B1FB44C0F820A02046E16888475F
:1030900000287DD0252806D0D4E901219047206A58
:1030A000401C2062F1E700255F462046E168884722
:1030B0002028064607DB312E05D2B81910F8200C5F
:1030C00008B10543F1E7A80701D525F00405C4F8C8
:1030D0001CA00027C4F818A02A2E09D0304600F002
:1030E00010F938B304EB8708303EC8F8186019E0CF
:1030F00059F8041B204604EB87029161E168884778
:10310000012F064618D1E069002820DA25F02005B5
:103110001DE0D8F8180000EB800006EB40003038C6
:10312000C8F818002046E1688847064600F0E9F82C
:103130000028EED1012F0AD02E2E08D12046E168BA
:1031400088477F1C0646022F45F02005C4DBA06996
:10315000002803DA404245F00105A061E80701D0EC
:1031600025F01005A6B1A6F14100192802D8203695
:1031700045F400654A463146204625604D46FCF739
:10318000DFFF60B1012807D0ED1D25F0070000E04A
:1031900007E000F1080978E705F1040975E7304612
:1031A0007AE7206ABDE8F09F840900002DE9F04726
:1031B0000D4699469246044600F1240801688806A7
:1031C00004D5E06921F01001216000E00120A8424F
:1031D00001DD471B00E00027A1697A1902EB090015
:1031E000081AA0612078C00602D42046FFF7DEFE50
:1031F000002608E0D4E901211AF806009047206A69
:10320000401C761C20624E45F4DB2078C0060AD5AF
:103210002046FFF7CBFE06E0D4E90121302090479D
:10322000206A401C2062381EA7F10107F4DC07E089
:10323000D4E9012118F805009047206A401C20625B
:10324000281EA5F10105F3DC2046FFF7C5FE207816
:10325000000602D50220BDE8F0870120FBE7000050
:1032600001694A1C02610878704700B58FB0CDE94A
:1032700001310021059105497944CDE9031011463A
:103280006846FFF7F7FE0FB000BD0000E5FFFFFF47
:10329000754600F02BF8AE4605006946534620F00F
:1032A0000700854618B020B5FCF770FFBDE8204048
:1032B0004FF000064FF000074FF000084FF0000BF2
:1032C00021F00701AC46ACE8C009ACE8C009ACE8A5
:1032D000C009ACE8C0098D46704710B50446AFF38D
:1032E00000802046BDE81040FCF73CBF0048704716
:1032F00068C0072001491820ABBEFEE72600020087
:10330000704730380A2801D20120704700207047EA
:103310000949096C41F0FF01074A11644FF08071BF
:1033200091634900D163114648654FF400019163F0
:10333000D16301125165704700C0092070B50025A6
:103340004FF480001A49C86180108861C00088610C
:103350008010C861012000F02DF800BF1448006CF7
:1033600020F0FF00124908644FF08070C8634000ED
:10337000C863322000F01EF80D48543004784FF036
:1033800000700B498863322000F014F8084890F868
:10339000540040EA04244FF080700549886300BF60
:1033A0002546C010886140008861284670BD000035
:1033B00000C0092008B5009000BF00994A1E009285
:1033C0000029FAD108BD000010B504464FF4800072
:1033D0000C49C8618010C861400088612046FFF731
:1033E00097FF4620FFF7E6FF4FF400000549C8614C
:1033F0000120FFF7DFFF4FF4000002498861401011
:10340000886110BD00C0092070B505460C462846ED
:10341000FFF7DAFF2046FEF7B9FC70BD00000000A0
:10342000000000000000000000000000000000009C
:10343000183C3C3C18180018180000000000000060
:10344000666666000000000000000000000000004A
:1034500036367F3636367F363600000000001818C4
:103460003C666030180C06663C18180000000070BE
:10347000D8DA760C18306E5B1B0E000000000000DE
:10348000386C6C38606F66663B000000000000001E
:1034900018181800000000000000000000000000E4
:1034A0000C1818303030303018180C0000000000B4
:1034B0003018180C0C0C0C0C181830000000000010
:1034C0000000361C7F1C36000000000000000000D9
:1034D000000018187E18180000000000000000000E
:1034E0000000000000001C1C0C1800000000000080
:1034F0000000007E0000000000000000000000004E
:103500000000000000001C1C00000000000000067D
:10351000060C0C1818303060600000000000001E1F
:10352000333737333B3B331E000000000000000CF4
:103530001C7C0C0C0C0C0C0C000000000000003C6F
:103540006666060C1830607E000000000000003C3B
:103550006666061C0666663C00000000000000303F
:1035600030363636667F0606000000000000007E1A
:103570006060607C06060C78000000000000001C03
:1035800018307C666666663C000000000000007E25
:10359000060C0C1818303030000000000000003C11
:1035A0006666763C6E66663C000000000000003CEB
:1035B000666666663E0C18380000000000000000D9
:1035C000001C1C0000001C1C00000000000000008B
:1035D000001C1C0000001C1C0C1800000000000651
:1035E0000C18306030180C060000000000000000CD
:1035F00000007E007E00000000000000000000606F
:1036000030180C060C183060000000000000003C70
:1036100066660C1818001818000000000000007EF4
:10362000C3C3CFDBDBCFC07F000000000000001869
:103630003C6666667E666666000000000000007CF0
:103640006666667C6666667C000000000000003CE2
:10365000666660606066663C0000000000000078FE
:103660006C66666666666C78000000000000007E8E
:103670006060607C6060607E000000000000007E92
:103680006060607C60606060000000000000003CE2
:10369000666660606E66663E0000000000000066C0
:1036A0006666667E66666666000000000000003C96
:1036B000181818181818183C0000000000001E0CFC
:1036C0000C0C0C0CCCCCCC78000000000000006688
:1036D000666C6C786C6C6666000000000000006030
:1036E000606060606060607E000000000000006359
:1036F00063776B6B6B636363000000000000006323
:1037000063737B6F67636363000000000000003C2D
:10371000666666666666663C000000000000007C27
:103720006666667C60606060000000000000003C2F
:10373000666666666666663C0C0600000000007CF5
:103740006666667C6C666666000000000000003CF1
:10375000666030180C06663C000000000000007E29
:103760001818181818181818000000000000006633
:10377000666666666666663C0000000000000066DD
:103780006666666666663C1800000000000000631E
:1037900063636B6B6B36363600000000000000661A
:1037A000663418182C66666600000000000000668B
:1037B0006666663C18181818000000000000007EBD
:1037C00006060C183060607E000000000000003C1F
:1037D000303030303030303030303C00000000606D
:1037E00060303018180C0C06060000000000003C89
:1037F0000C0C0C0C0C0C0C0C0C0C3C0000183C665B
:1038000000000000000000000000000000000000B8
:1038100000000000000000000000FF000038180C4D
:103820000000000000000000000000000000000098
:10383000003C06063E66663E000000000000006098
:10384000607C66666666667C000000000000000022
:10385000003C66606060663C0000000000000006FE
:10386000063E66666666663E0000000000000000D8
:10387000003C66667E60603C000000000000001EA8
:103880003030307E3030303000000000000000006A
:10389000003E66666666663E06067C0000000060C6
:1038A000607C6666666666660000000000001818A8
:1038B000007818181818187E0000000000000C0C82
:1038C000003C0C0C0C0C0C0C0C0C78000000006084
:1038D0006066666C786C6666000000000000007828
:1038E000181818181818187E0000000000000000B2
:1038F000007E6B6B6B6B6B630000000000000000D0
:10390000007C6666666666660000000000000000D7
:10391000003C66666666663C000000000000000031
:10392000007C66666666667C606060000000000081
:10393000003E66666666663E0606060000000000FB
:1039400000666E70606060600000000000000000B3
:10395000003E60603C06067C000000000000003075
:10396000307E30303030301E00000000000000009B
:10397000006666666666663E0000000000000000A5
:103980000066666666663C180000000000000000E5
:1039900000636B6B6B6B36360000000000000000AC
:1039A0000066663C183C66660000000000000000EF
:1039B000006666666666663C0C18F0000000000053
:1039C000007E060C1830607E000000000000000C35
:1039D0001818183060301818180C00000000001873
:1039E000181818181818181818181800000000309F
:1039F0001818180C060C1818183000000000007178
:103A0000DB8E000000000000000000000400000841
:103A10000000000000000002000100001000000093
:103A2000503A000000C007202000000008010000FC
:103A3000503A0000000000100002000024010000C5
:103A4000703A000020C00720A800000024010000F8
:103A500000E1F5050000000000000000000000008B
:103A60000000000000000000000000000000000056
:04000005000000CD2A
:00000001FF
