:020000040000FA
:100000000002001071010000790100007B01000076
:100010007D0100007F010000810100000000000060
:10002000000000000000000000000000830100004C
:100030008501000000000000870100008901000028
:100040008B0100008B0100002B3E00008B010000A3
:100050008B0100008B0100008B0100008B01000070
:100060008B0100008B0100008B0100008B01000060
:100070008B0100008B0100008B0100008B01000050
:100080008B0100008B0100008B0100008B01000040
:100090008B0100008B0100008B0100008B01000030
:1000A0008B0100008B0100008B0100008B01000020
:1000B0008B0100008B0100008B0100008B01000010
:1000C0008B0100008B0100008B01000000F002F8A2
:1000D00000F03FF80AA090E8000C82448344AAF1A3
:1000E0000107DA4501D100F034F8AFF2090EBAE8A1
:1000F0000F0013F0010F18BFFB1A43F0010318475C
:10010000F448000024490000103A24BF78C878C1A0
:10011000FAD8520724BF30C830C144BF04680C600D
:10012000704700000023002400250026103A28BF55
:1001300078C1FBD8520728BF30C148BF0B60704759
:10014000642903F04587002070471FB51FBD10B517
:1001500010BD04F087F81146FFF7F7FF02F027FC07
:1001600004F0A5F803B4FFF7F2FF03BC04F0ACF809
:100170000948804709480047FEE7FEE7FEE7FEE73B
:10018000FEE7FEE7FEE7FEE7FEE7FEE70448054977
:10019000034A054B704700002D040000CD0000000D
:1001A00000C10720000200100000001010B50A4630
:1001B000202801D2034601E0A0F12003194620289F
:1001C00010D2454B1B6803248C40A343434CC4F816
:1001D000A831414B1B6802FA01F423433F4CC4F899
:1001E000A83111E03C4B1B1D1B6803248C40A3432A
:1001F0003A4CC4F8AC31384B1B1D1B6802FA01F4B1
:100200002343364CC4F8AC3110BD0146202903D23B
:100210000A46314B186804E0A1F120022E4B1B1D49
:10022000186820FA02F303F00300704770B5064621
:100230002B4804683046FFF7E8FF054635B1012D2D
:1002400006D0022D06D0032D08D105E0042505E0D7
:10025000012503E0022501E0082500BF00BFB4FB33
:10026000F5F4204670BD012909D11C4AC432126838
:100270001C4B03401A43194BC3F8C42009E041B991
:10028000164AC4321268174B83431A40134BC3F803
:10029000C420704700201149C031086030BF70474A
:1002A00004201149086008200C49C031086030BFA3
:1002B000704704200C49086009200849C0310860D3
:1002C00030BF704704200849086003200349C0314B
:1002D000086030BF70470000A8C10F4000C00F4049
:1002E00000C00720DEF7EFEF10ED00E07047704729
:1002F00070470A6802F8010B0A607047FFFFFFFFB2
:1003000097480068C0F3016003285DD194488430A9
:10031000006800F0030030B1012820D0022839D055
:10032000032850D100E000BF8D480068C0F30E00E4
:10033000401C40008B49484389498839D1F88810CE
:10034000C1F30741491CB0FBF1F185487C300068DE
:10035000C0B2401CB1FBF0F08349086033E0804834
:100360000068C0F30E00401C4000804948437C49AF
:100370008839D1F88810C1F30741491CB0FBF1F16D
:1003800077487C300068C0B2401CB1FBF0F0764981
:10039000086018E072480068C0F30E00401C0104B9
:1003A0006F488838D0F88800C0F30740401CB1FB84
:1003B000F0F16B487C300068C0B2401CB1FBF0F03B
:1003C0006949086000BF30E065488430006800F08B
:1003D000030030B1012810D0022819D0032823D1FE
:1003E00000E000BF5E487C300068C0B2401C5D4940
:1003F000B1FBF0F05C49086016E059487C300068B9
:10040000C0B2401C5949B1FBF0F0574908600BE0FD
:1004100053487C300068C0B2401C4FF40041B1FB2F
:10042000F0F05149086000BF00BF704720205049DC
:1004300008604B488838D0F8A00100F0200030B1A7
:1004400000BF4B48006800F040000028F9D00320AE
:1004500043497C310860002041498839C1F8A8012E
:1004600043490C31086001203D498431086041480E
:100470003B49091F0860AA203949091D0860552019
:1004800008600120364908390860AA203449091D4E
:100490000860552032498839C1F88C0000BF3048C7
:1004A000006800F080600028F9D003202C4908394A
:1004B0000860AA202A498839C1F88C0055202849AB
:1004C000091D086000BF2648006800F04070002841
:1004D000F9D0232022491C310860AA2020498839FC
:1004E000C1F8AC0055201E492431086001201C4988
:1004F00018310860AA201A4924310860552018498B
:100500008839C1F8AC0000BF15482030006800F4FD
:1005100080600028F8D00320114918310860AA2013
:100520000F498839C1F8AC0055200D4924310860C5
:1005300000BF0B482030006800F440700028F8D05D
:100540000D4807493C310860002005498839C1F849
:10055000C80143F23A00086000200849086070476B
:1005600088C00F4000093D0000C00720001BB700F5
:10057000A0C10F4063000500DE87280408ED00E0FD
:1005800001460020052912D2DFE801F00305080B1F
:100590000E00FB480CE0FA48203009E0F8484030F3
:1005A00006E0F748603003E0F548803000E000BF27
:1005B00000BF704701460020052912D2DFE801F094
:1005C0000305080B0E00EE480CE0ED48203009E072
:1005D000EB48403006E0EA48603003E0E84880300D
:1005E00000E000BF00BF704701460020052912D27D
:1005F000DFE801F00305080B0E00E1480CE0E048DD
:10060000203009E0DE48403006E0DD48603003E09D
:10061000DB48803000E000BF00BF70472DE9F041AB
:1006200007460D4616463846FFF7AAFF04463CB17A
:100630001EB120682843206002E02068A8432060A3
:10064000BDE8F08170B506460C463046FFF798FFCE
:10065000054605B1AC6170BD70B506460C46304626
:10066000FFF78EFF054605B1EC6170BD70B505461C
:100670002846FFF785FF04460CB1606970BD002075
:10068000FCE718B912B9BF4B196017E0022804D172
:100690001AB9BC4B2033196010E028B9012A03D1E4
:1006A000B84B1B1D196009E0022805D1012A03D1AE
:1006B000B44B2433196001E000BFFEE770470346E6
:1006C0003BB932B9AF480C380068C84000F00100AF
:1006D0007047022B07D132B9AA4814300068C840CD
:1006E00000F00100F4E743B9012A06D1A548083813
:1006F0000068C84000F00100EAE7022B08D1012A97
:1007000006D1A04818300068C84000F00100DFE7BB
:1007100000BFFEE718B99B4A121F116007E00228CC
:1007200003D1984A1C32116001E000BFFEE7704718
:1007300070B504460D461646324629462046FFF758
:100740006DFF70BD70B504460D4629462046FFF783
:1007500079FF70BD70B504460D4629462046FFF767
:100760007BFF70BD10B504462046FFF77FFF10BD2C
:1007700070B504460D461646324629462046FFF718
:1007800080FF70BD70B504460D46164632462946B8
:100790002046FFF794FF70BD10B503460C46214676
:1007A0001846FFF7B7FF10BD2DE9F04107460D468B
:1007B00016463846FFF7E4FE04463CB11EB12069F8
:1007C0002843206102E02069A8432061BDE8F08150
:1007D0002DE9F04180460E4615461F464046FFF77C
:1007E000E9FE04468CB147B11EB1608828436080A1
:1007F0000BE020882843208007E01EB16088A843D2
:10080000608002E02088A8432080BDE8F0812DE9C7
:10081000F04180460E4615461F464046FFF7CAFE89
:1008200004468CB147B11EB1608A284360820BE058
:10083000208A2843208207E01EB1608AA843608294
:1008400002E0208AA8432082BDE8F0812DE9F04132
:1008500007460E4614463846FFF7ACFE05461DB166
:100860000EB16C8300E02C83BDE8F0812DE9F041EE
:1008700007460E4614463846FFF79CFE05461DB156
:100880000EB1EC8300E0AC83BDE8F08170B50646A4
:100890000D463046FFF78EFE044624B10DB1E08AC6
:1008A00070BDA08AFCE70020FAE72DE9F041804600
:1008B0000C4616461F464046FFF796FE05465DB1BC
:1008C0002FB1032C08DC285D3043285504E0032CAD
:1008D00002DC285DB0432855BDE8F0812DE9F041E8
:1008E00080460C4616461F464046FFF77DFE0546ED
:1008F0009DB14FB1032C10DC05F11000005D3043B9
:1009000005F11001085508E0032C06DC05F1100084
:10091000005DB04305F110010855BDE8F0812DE9F7
:10092000F04107460C4615463846FFF75DFE064681
:1009300026B1032C02DC06F118000555BDE8F08154
:100940002DE9F04107460C4615463846FFF74CFEA8
:10095000064626B1032C02DC06F11C000555BDE855
:10096000F08170B506460C463046FFF73DFE054661
:1009700055B1032C08DC05F11400005D70BD0000CA
:1009800000C00920908002400020F7E7F0B504463F
:100990000B461546194660003B4A102901D3103911
:1009A000401C52F820604FEA410C032707FA0CF76D
:1009B000BE4342F8206052F820604F0005FA07F766
:1009C0003E4342F82060F0BDF0B504460B461546A4
:1009D000194660002C4A4032102901D31039401CBE
:1009E00052F820604FEA410C032707FA0CF7BE4388
:1009F00042F8206052F820604F0005FA07F73E43A6
:100A000042F82060F0BD30B50B461F496831012A1D
:100A100007D151F8204001259D402C4341F820404A
:100A200006E051F8204001259D40AC4341F82040AC
:100A300030BD012806D11449896A41F00801124AE3
:100A4000916206E028B91049896A21F008010E4A2E
:100A500091627047012800D1052201B90A220A4B90
:100A6000DA67704710B50446A27861782078FFF7FE
:100A70008DFFE27861782078FFF7A6FF2279617810
:100A80002078FFF7C0FF10BD00C0024070B50546DA
:100A900035B1012D09D0022D0CD0032D14D10EE05B
:100AA0000220FFF7C3FB04460EE00420FFF7BEFB65
:100AB000044609E02C20FFF7B9FB044604E02E2091
:100AC000FFF7B4FB044600BF00BF204670BD2DE910
:100AD000F04781460C464846FFF7D8FF00260546FA
:100AE00000232946A1FB047C06FB04C205FB03216D
:100AF000FB4A384603F0B8F905462846BDE8F087BA
:100B000001464FF0FF30B1F1402F01D100200DE040
:100B1000F44A914201D1012008E0F34A914201D107
:100B2000022003E0F14A914200D10320704770B5E2
:100B300005460C46B5F1402F08D0EA48854205D05D
:100B4000E948854202D0E948854200D103E0A62168
:100B5000E7A002F083F84CB1012C07D0022C05D09D
:100B6000032C03D0042C01D0052C00D103E0A721D5
:100B7000DFA002F073F828680121A1400840C6B246
:100B80000EB1012070BD0020FCE770B505460C4693
:100B9000B5F1402F08D0D348854205D0D2488542D0
:100BA00002D0D248854200D103E0C421D0A002F097
:100BB00055F84CB1012C07D0022C05D0032C03D0E2
:100BC000042C01D0052C00D103E0C521C8A002F0FF
:100BD00045F82868211D01228A401040C6B20EB196
:100BE000012070BD0020FCE770B505460C46B5F14C
:100BF000402F08D0BB48854205D0BB48854202D073
:100C0000BA48854200D103E0DD21B9A002F026F800
:100C10004CB1012C07D0022C05D0032C03D0042C9E
:100C200001D0052C00D103E0DE21B1A002F016F8BE
:100C30000120A040286070BD70B505460C46B5F196
:100C4000402F08D0A748854205D0A748854202D04A
:100C5000A648854200D103E0F421A5A001F0FEFFE3
:100C60004CB1012C07D0022C05D0032C03D0042C4E
:100C700001D0052C00D103E0F5219DA001F0EEFF8D
:100C8000201D01218140296070BD20B90A46012341
:100C90001370536003E00A460023537000BF70478F
:100CA0002DE9F04704460D461646B4F1402F08D012
:100CB0008C48844205D08C48844202D08B488442C0
:100CC00000D104E040F22B1189A001F0C7FF1DB153
:100CD000012D01D000D000D104E04FF4967184A022
:100CE00001F0BCFFB4F1402F08D101210220FFF731
:100CF000BAFA00210220FFF759FA22E0794884422B
:100D000008D101210420FFF7AEFA00210420FFF7EB
:100D10004DFA16E07448844208D101218805FFF796
:100D2000A2FA00212C20FFF741FA0AE06F48844222
:100D300007D10121C805FFF796FA00212E20FFF701
:100D400035FAA06A20F00300A062A06AA062002029
:100D5000A0602061E060606840F002006060606850
:100D600020F00200606085B93746387818B9786895
:100D7000401EE06017E02046FFF7C2FE814679681A
:100D8000FFF7A5FE401EE0600DE0B046A06A20F02F
:100D90000C00A062464698F80100012803D1A06A21
:100DA00040F00400A0624FF0FF302060BDE8F08703
:100DB00010B50446B4F1402F08D04A48844205D00B
:100DC0004948844202D04948844200D104E040F2BC
:100DD000791147A001F042FF00206060B4F1402F7C
:100DE00004D100210220FFF73EFA18E03D4884427A
:100DF00004D100210420FFF736FA10E03A4884427B
:100E000005D100214FF48000FFF72DFA07E03748A5
:100E1000844204D100214FF48000FFF724FA10BD72
:100E200070B504460D46B4F1402F08D02D488442D9
:100E300005D02D48844202D02C48844200D104E0E1
:100E40004FF4CD712AA001F009FF012D04D1606893
:100E500040F00100606003E0606820F00100606025
:100E600070BD10B50446B4F1402F08D01D4884422F
:100E700005D01D48844202D01C48844200D104E0C1
:100E80004FF4D9711AA001F0E9FE606840F0020049
:100E90006060606820F00200606010BD70B50446BC
:100EA0000D46B4F1402F08D00E48844205D00E48BC
:100EB000844202D00D48844200D104E040F2D111B6
:100EC0000BA001F0CBFE287940B12879012805D08C
:100ED0002879022802D02879032829D12EE00000A1
:100EE00040420F00008000400000094000400940DF
:100EF0002E2E5C4C69627261726965735C4C435062
:100F0000313736385F5374645065726970685F4476
:100F100072697665725C736F757263655C6C706321
:100F2000313778785F74696D65722E630000000058
:100F30004FF4E971AFF2480001F090FE287830B12B
:100F4000012807D0022808D003280CD108E0A8689F
:100F5000A0610AE0A868E06107E0A868206204E0F8
:100F6000A868606201E000BFFEE700BF6069297801
:100F700001EB41020721914088436061687838B1F4
:100F80006069297801EB41020121914008436061C9
:100F9000E87840B16069297801EB4101491C0122E0
:100FA0008A4010436061A87840B16069297801EBFC
:100FB0004101891C01228A4010436061E06B29785D
:100FC000042202EB4102032191408843E063287927
:100FD00000F003002978042202EB41018840E16B14
:100FE0000843E06370BD70B504460E461546B4F183
:100FF000402F08D04348844205D04348844202D061
:101000004248844200D105E040F20721AFF22010AF
:1010100001F024FE36B1012E06D0022E06D0032E9A
:1010200008D105E0A56107E0E56105E0256203E080
:10103000656201E000BFFEE700BF70BD70B5044609
:101040000D46B4F1402F08D02E48844205D02E48DA
:10105000844202D02D48844200D105E040F22D2187
:10106000AFF2741001F0FAFDA06A297801EB410299
:10107000072191408843A062687838B1A06A297836
:1010800001EB4102012191400843A062A87840B1E0
:10109000A06A297801EB4101491C01228A401043D2
:1010A000A062E87840B1A06A297801EB4101891C6F
:1010B00001228A401043A06270BD70B504460D46FF
:1010C000B4F1402F08D00F48844205D00E48844226
:1010D00002D00E48844200D105E04FF41271AFF205
:1010E000F01001F0BBFD0DB1012D00D105E040F283
:1010F0004921AFF2042001F0B1FD0DB9E06A70BDE5
:10110000206BFCE7008000400000094000400940DF
:101110002DE9F04704468846F648844202D0F64856
:10112000844200D103E04321F4A001F097FDF1488F
:10113000844204D12A20FFF779F8074609E0EE48F7
:10114000844204D11420FFF771F8074601E0BDE89E
:10115000F08700254FF0FF3902260AE0681C704333
:10116000B7FBF0F9C14504D96D1CFF2D01D900254D
:10117000B61CC145F2D82068C0B2206020684FF686
:10118000FF7101EA052108432060F0B2206100BF31
:10119000DDE770B504460D46D648844202D0D648F5
:1011A000844200D103E08121D4A001F057FDD14851
:1011B000844204D101214805FFF755F808E0CE48E4
:1011C000844204D101210015FFF74DF800E070BD05
:1011D000A88829890843298A08432988084386B2B0
:1011E0002660287B00F00F06666020466969FFF7DD
:1011F0008FFF00BFEBE710B50446BE48844202D023
:10120000BD48844200D103E0A821BCA001F026FD26
:10121000B848844205D100214FF40010FFF723F8AD
:1012200006E0B548844203D100210015FFF71BF802
:1012300010BD10B50446AF48844202D0AE48844287
:1012400000D103E0C021ADA001F008FD206800F04E
:101250000F0010BD002141608160B7494161072145
:1012600001600021C1600161704770B504460D4600
:10127000A048844202D0A048844200D103E0E52186
:101280009EA001F0EBFC0DB1012D00D103E0E621A1
:101290009AA001F0E3FC012D04D1606840F0020047
:1012A000606003E0606800F00D00606070BD70B5C4
:1012B00004460D468F48844202D08F48844200D1B4
:1012C00003E0FE218DA001F0C9FC0DB1012D00D17C
:1012D00003E0FF2189A001F0C1FC012D04D1606869
:1012E00040F00100606003E0606800F00E006060A4
:1012F00070BD70B504460D467E48844202D07E48DB
:10130000844200D104E04FF48D717CA001F0A6FC72
:101310000DB1012D00D104E040F21B1177A001F0C6
:101320009DFC012D04D1606800F00700606003E0BF
:10133000606840F00800606070BD70B504460D46FE
:101340006C48844202D06C48844200D104E04FF4DF
:101350009A716AA001F082FCA8B2A06070BD10B5BD
:1013600004466448844202D06348844200D104E0C9
:101370004FF4A27161A001F071FCA06880B210BDB1
:101380002DE9F74F82B006460C460020E060606011
:10139000606103E03046FFF7E2FF0746F06800F0C7
:1013A00004000028F6D1032030623046FFF741FFE9
:1013B000082801DD012500E00025049800287AD1E5
:1013C00025B9D4F80890D4F800A003E0D4F808B008
:1013D0002068019060E0F06800F0020010B321691D
:1013E000606888422AD0206888B93DB9FF2130461C
:1013F000FFF7A3FF6068401C60601FE04FF6FF71BD
:101400003046FFF79AFF6068801C606016E055B9AF
:101410009AF800103046FFF790FF0AF1010A606861
:10142000401C60600AE0019801883046FFF785FFA4
:101430000198801C01906068801C6060D6F818805C
:1014400008F0010038B148F4007060614FF0FF30DF
:1014500005B0BDE8F08F17E03046FFF780FF074684
:10146000A06848B125B989F8007009F1010903E0C5
:10147000ABF800700BF1020B1DB9E068401CE06096
:1014800002E0E068801CE060F06800F0040018B141
:10149000D4E903018842DFD12169606888429AD18A
:1014A000D4E90301884296D14FF4807060612068CE
:1014B00010B16068CCE705E0A06808B1E068C7E754
:1014C0000020C5E7049801287ED176E02068A8BBFB
:1014D0003DB9FF213046FFF730FF6068401C606077
:1014E00041E04FF6FF713046FFF727FF6068801C30
:1014F000606038E000800840000003402E2E5C4C05
:1015000069627261726965735C4C43503137363879
:101510005F5374645065726970685F447269766580
:10152000725C736F757263655C6C70633137787869
:101530005F7373702E63000040420F00FFE74DB9E8
:10154000D4E90002815C3046FFF7F7FE6068401C7A
:10155000606008E0D4E90002815A3046FFF7EDFEF2
:101560006068801C6060D6F8188008F0010028B11F
:1015700048F4007060614FF0FF3069E715E03046D5
:10158000FFF7EDFE0746A06838B11DB9D4E9021295
:101590008F5402E0D4E902128F521DB9E068401C5A
:1015A000E06002E0E068801CE060F06800F00400A9
:1015B00018B1D4E903018842E1D1F06800F00200DB
:1015C00030B12169606800E012E088427FF47EAFAC
:1015D000D4E90301884203D121696068884202D0BE
:1015E0000F20706102E04FF48070606100202FE7EF
:1015F0004FF0FF302CE770B505460C467648854223
:1016000002D07648854200D105E04FF40571AFF273
:10161000141001F023FB012C07D0022C05D0042C60
:1016200003D0082C01D0102C00D105E040F2152188
:10163000AFF2381001F012FBE868204008B1012039
:1016400070BD0020FCE770B504460D4616466248A2
:10165000844202D06148844200D105E04FF40B710E
:10166000AFF2681001F0FAFA012E03D16069284345
:10167000606104E060690F21A9430840606170BDAA
:1016800070B505460C465448854202D05348854201
:1016900000D105E040F24921AFF2A01001F0DEFADE
:1016A000012C05D0022C03D0042C01D0082C00D131
:1016B00005E040F24A21AFF2BC1001F0CFFAA86970
:1016C000204008B1012070BD0020FCE710B50446A1
:1016D0004148844202D04148844200D105E04FF4A1
:1016E0001671AFF2E81001F0B9FAA06910BD70B53B
:1016F00005460C463848854202D03848854200D11C
:1017000005E040F26D21AFF20C2001F0A7FA012CA8
:1017100005D0022C03D0042C01D0082C00D105E008
:1017200040F26E21AFF22C2001F098FAE8692040D7
:1017300008B1012070BD0020FCE770B504460D46DD
:101740002548844202D02548844200D105E040F279
:101750008121AFF2582001F081FA012D01D0022D34
:1017600000D105E040F28221AFF2702001F076FA5C
:10177000256270BD70B504460D4616461648844273
:1017800002D01648844200D105E040F29721AFF222
:10179000942001F063FA022D01D0012D00D105E063
:1017A0004FF42671AFF2AC2001F058FA0EB1012EC1
:1017B00000D105E040F29921AFF2C02001F04EFACD
:1017C000012E03D1606A2843606204E0606A03214D
:1017D000A9430840606270BD0080084000000340DB
:1017E0000146F748814201D100207047F548814207
:1017F00001D10120F9E7F448814201D10220F4E748
:101800004FF0FF30F1E70146202008600820886192
:1018100000BF086800F008000028FAD02020886186
:10182000486800F0F8007047016801F0200109B134
:1018300020218161102101600821816170470246E9
:10184000106800F0200008B120209061C8B29060BC
:101850000820906100BF106800F008000028FAD04E
:10186000506800F0F80070470346012A02D10420B6
:10187000186001E0042098610820986100BF186892
:1018800000F008000028FAD098680870586800F046
:10189000F800704770B504460E46C948844205D02A
:1018A000C848844202D0C848844200D103E0E02105
:1018B000C6A001F0D3F9C248844205D10E20FEF73C
:1018C000B5FCB0FBF6F510E0BE48844205D12620F9
:1018D000FEF7ACFCB0FBF6F507E0BB48844204D150
:1018E0003420FEF7A3FCB0FBF6F568082061206900
:1018F000281A606170BD70B504460D46B048844238
:1019000005D0B048844202D0AF48844200D104E000
:101910004FF48471ADA001F0A1F9A948844208D127
:1019200001218020FEF79FFC02210E20FEF73EFCE5
:1019300018E0A448844208D10121C804FEF793FCB2
:1019400002212620FEF732FC0CE09F48844208D199
:1019500001218806FEF787FC02213420FEF726FCD1
:1019600000E070BD29462046FFF794FF6420A06187
:1019700000BFF6E710B504469148844205D091486F
:10198000844202D09048844200D104E04FF49C711C
:101990008EA001F063F94020A0618948844204D1FF
:1019A00000218020FEF75FFC10E08648844205D1CC
:1019B00000214FF40020FEF756FC07E082488442E5
:1019C00004D100214FF08060FEF74DFC10BD70B5D2
:1019D00004460D460DB1012D00D104E040F259112D
:1019E0007AA001F03BF97648844205D075488442DC
:1019F00002D07548844200D104E04FF4AD7173A069
:101A000001F02CF9012D02D14020206001E040209E
:101A1000A06170BD70B504460D46A5B1684884420A
:101A200003D10A2000F08CFC21E06648844203D1F7
:101A30000B2000F085FC1AE06348844217D10C208B
:101A400000F07EFC13E05E48844203D10A2000F0DF
:101A500082FC0CE05B48844203D10B2000F07BFC4D
:101A600005E05948844202D10C2000F074FC70BD9E
:101A70002DE9F04105462846FFF7B2FE06466248CA
:101A800050F83640686800F0F8076762F82F03D115
:101A90000820A861BDE8F0815B4800EBC600406803
:101AA000002857D1202F48D006DC082F0BD0102F4C
:101AB0000AD0182F4CD115E0282F14D0302F3DD04C
:101AC000382F45D13FE000BF2020A861606838B1C1
:101AD000A06828B120684000A8600820A86100E044
:101AE00012E036E000BFD4E9021088420BD26068F1
:101AF00048B1E1686068405CA860E068401CE06054
:101B00000820A86118E000BF01203F4901EBC60191
:101B10004860606958B1206948B1A06830B1606818
:101B200020B1202028600C20A86105E031E0606A27
:101B300040F480606062B6E00BE000BF606A40F491
:101B400000706062A0E0606A40F48070606200BF74
:101B50009AE0B5E02C4800EBC60040680128F8D1B7
:101B6000402F24D006DC082F0BD0102F0AD0382F9E
:101B70007DD183E0482F7CD0502F4CD0582F76D188
:101B800063E000BF2020A861206950B1606940B1C6
:101B900000BF0121206801EB4000A8600820A86177
:101BA00004E0606A40F4806060627CE087E0D4E931
:101BB0000501401E814229D20420286028E000004F
:101BC00000C0014000C0054000000A402E2E5C4CC1
:101BD00069627261726965735C4C435031373638A3
:101BE0005F5374645065726970685F4472697665AA
:101BF000725C736F757263655C6C70633137787893
:101C00005F6932632E63000024C007200420A861AE
:101C10000820A86153E0206950B1D4E9051088423A
:101C200006D2A868A26921698854A069401CA061F5
:101C3000D4E90501401E814202D20420286001E05F
:101C40000420A8610820A86139E0206950B1D4E9D6
:101C50000510884206D2A868A26921698854A06943
:101C6000401CA061606A40F4806060621BE00AE092
:101C7000FFE7606A40F40070606205E0606A40F46B
:101C80008070606200BF00BFD4E90710884209D2AB
:101C90000020E060202028600C20A861206A401C01
:101CA00020620BE000BF00212846FFF7B3FE284664
:101CB000FFF7BAFD0120F74941F8260000BF00BF39
:101CC00000BFE7E62DE9F04104462046FFF788FD16
:101CD0008046F14850F83850606800F0F806AE6170
:101CE000F82E03D10820A061BDE8F08106F00700BE
:101CF000002868D1F0100C38142864D2DFE800F016
:101D00000F631063152816292C4763485A636363D1
:101D10006363630A042020600820A0615FE000BFC5
:101D2000042020600820A06159E000BFD5E904101C
:101D3000884208D2E86830B1A0686A69E9688854C6
:101D40006869401C6861042020600820A06146E0AA
:101D500000BF0820A06142E000212046FFF75AFEA4
:101D60000820A06147030FE0206800F0080020B1C0
:101D700001212046FFF74EFE07E07F1E27B9A86924
:101D800040F48060A8611FE0EEE700BF27E000BFDD
:101D9000D5E90110884208D2286830B1A9682868BE
:101DA000405CA060A868401CA86004202060082057
:101DB000A06114E0042020600820A061A86940F41C
:101DC0008060A86100E000BF00212046FFF722FEEE
:101DD0002C20A0610120B14941F8280000BF00BFBC
:101DE00000BF81E72DE9F84306460C461746D4F8B4
:101DF0000480D4F810900020E060A0616062002FA1
:101E00007ED1206200BFD4F80480D4F81090002066
:101E1000E060A06100253046FFF7F5FC0546082D7F
:101E20000BD0102D09D0206A401C2062D4E9071085
:101E3000884201D96562ABE0E5E7A068A0B36068BD
:101E400090B320784006010E3046FFF7F8FC0546B7
:101E5000182D0BD0206A401C2062D4E9071088425C
:101E600003D945F40070606292E0CCE718E098F87E
:101E700000103046FFF7E3FC0546282D0BD0206A02
:101E8000401C2062D4E90710884203D945F4007051
:101E900060627DE0B7E708F10108E068401CE0609F
:101EA000D4E902108842E2D3A068B8B16068A8B152
:101EB000606998B1206988B13046FFF7A4FC0546F7
:101EC000082D0BD0102D09D0206A401C2062D4E9C7
:101ED0000710884201D965625AE094E760690028DA
:101EE00050D0206900284DD02078012202EB40001C
:101EF000C1B23046FFF7A3FC0546402D0DD000E0EF
:101F00004BE0206A401C2062D4E90710884203D9C4
:101F100045F4007060623BE075E72FE0D4E905010D
:101F2000401E814211D2012269463046FFF79CFCD7
:101F30000546502D1BD0206A401C2062D4E90710B2
:101F4000884201D9656223E05DE700226946304698
:101F5000FFF78AFC0546582D09D0206A401C2062F4
:101F6000D4E90710884201D9656211E04BE79DF87A
:101F7000000009F8010BA069401CA061D4E905101C
:101F80008842CBD33046FFF74FFC0120BDE8F883F1
:101F90003046FFF749FC0020F8E7012F1AD1304600
:101FA000FFF71EFCC0B200903B489DF8001040F8BF
:101FB0003140002038499DF8002001EBC201486003
:101FC0000820B0612020306001213046FFF722FD5B
:101FD0000120DBE70020D9E72DE9F84F04460D4644
:101FE0001646D5F80090D5F80CA00020A8606861CE
:101FF000A861002E6FD1042020602820A06100205D
:102000000090834675E0206800F00800002867D043
:1020100000200090606800F0F80707F00700002833
:102020005AD1F8100C38142856D2DFE800F00F55BA
:102030001055152716282B39553A4B5555555555DA
:10204000550A042020600820A06148E000BF042059
:1020500020600820A06142E000BFD5E9041088425A
:1020600007D2E86828B1A0680AF8010B6869401C2B
:102070006861042020600820A06130E000BF0820D3
:10208000A0612CE00820A061012000904FF0000B1F
:1020900025E000003CC0072024C0072048C00720DE
:1020A00000BFD5E90110884207D2286828B119F885
:1020B000010BA060A868401CA860042020600820D4
:1020C000A0610CE0042020600820A06101200090A5
:1020D0004FF0000B03E01AE00820A06112E008E0D6
:1020E000009830B158460BF1010BB0F5803F00D994
:1020F00000E088E70420A06147F48060A861012027
:10210000BDE8F88F0420A061AF610020F8E7012E40
:1021100015D12046FFF764FB8046934840F83850BD
:102120000120914901EBC80148600420206028206B
:10213000A06101212046FFF76DFC0120E0E70020AF
:10214000DEE770B504460D468848844205D08848CD
:10215000844202D08748844200D105E040F2A14188
:10216000AFF2985000F07AFD2878002803DB287839
:10217000032800DC05E040F2A241AFF2B05000F0CD
:102180006DFDA87810B1A878012800D105E040F2D3
:10219000A341AFF2C85000F061FDA878012800D13A
:1021A00000E00020697840EA4100C6B2287830B1EA
:1021B00001280AD002280ED0032818D111E0E660C9
:1021C000E87800F0FE00206311E02662E87800F075
:1021D000FE0060630BE06662E87800F0FE00A0633A
:1021E00005E0A662E87800F0FE00E06300BF00BFF3
:1021F00070BD70B504460D4616465C48844205D055
:102200005B48844202D05B48844200D105E040F242
:10221000D541AFF2486000F021FD022D00D000BF93
:1022200000BF0EB1012E00D105E040F2D741AFF260
:10223000646000F013FD012E03D1E0692843E061E2
:1022400004E0E0690721A9430840E06170BD70B572
:1022500004460D464548844205D04548844202D094
:102260004448844200D105E040F2F141AFF2A4605D
:1022700000F0F4FC0DB1012D00D105E040F2F24177
:10228000AFF2B86000F0EAFC012D08D1E06940F03F
:102290000100E061042020602820A06105E0E069E1
:1022A00000F00600E0612C20A061002032490860A7
:1022B00070BD10B504462D48844205D02C48844298
:1022C00002D02C48844200D105E040F21451AFF214
:1022D000047000F0C3FCE06AC0B210BD30B5034624
:1022E000002008249C61DC6A234D2D684C55224C4B
:1022F0002468641C204D2C602C462468944200D332
:10230000012030BD70B505462846FFF769FA04463E
:102310001A4850F824600020184941F8240030463B
:1023200070BD70B505462846FFF75AFA04461448B2
:1023300050F824600020124941F82400304670BD56
:1023400000F01F02012191404209920002F1E022B7
:10235000C2F80011704700F01F0201219140094AA4
:10236000430942F82310704724C0072000C00140F1
:1023700000C0054000000A4004C007203CC0072000
:1023800048C0072080E100E010B5FE48406840F4F6
:102390008000FC4948600846406840F08070486012
:1023A00000224FF440610220FEF738F910BD00B55D
:1023B00087B0F5480088002101220223CDE90032D0
:1023C000CDE902104A231A463C210A2001F065FAA1
:1023D000ED484088002101220223CDE90032CDE9F9
:1023E00002104A231A463C21542001F056FAE648CE
:1023F0008088002101220223CDE90032CDE90210BC
:102400004A231A463C219E2001F047FADE48C08844
:10241000002101220223CDE90032CDE902104A2336
:102420001A4686210A2001F038FAD748008900218F
:1024300001220223CDE90032CDE902104A231A46D7
:102440008621542001F029FACF4840890021012239
:102450000223CDE90032CDE902104A231A46862133
:102460009E2001F01AFAC848808900210122022327
:10247000CDE90032CDE902104A231A46D0210A20C4
:1024800001F00BFAC048C089002101220223CDE9E6
:102490000032CDE902104A231A46D021542001F01F
:1024A000FCF9B948008A002101220223CDE900325B
:1024B000CDE902104A231A46D0219E2001F0EDF901
:1024C000012206A9002001F04AFC012205A91046BC
:1024D00001F045FC9DF81820ACA1B04801F03CFD8E
:1024E0001F204FF6FF73AD4A0A210090202001F013
:1024F00080F99DF81420AAA1A84801F02DFD1F2005
:102500004FF6FF73A54A1E210090202001F071F9BB
:1025100007B000BDA74909881F290ED19A4931F893
:1025200010104FF6FF72914207D14FF47841964A4E
:1025300022F810109F4A11800CE0934931F81010D6
:102540004FF6FF72914205D11F218F4A22F81010D9
:10255000984A118070473EB545248B4800884FF655
:10256000FF7188422BD08848008887494988884273
:1025700025D1854800888449898888421FD18248AE
:1025800000881F2805D18CA1844801F0E5FC422475
:1025900004E08EA1814801F0DFFC52247A490888CA
:1025A00000F0DAFB784800884FF6FF737B4A782109
:1025B0000090282001F01DF931208A4908707248E6
:1025C000C0884FF6FF7188422BD06F48C0886E4993
:1025D0000989884225D16C48C0886B49498988425D
:1025E0001FD16948C0881F2805D173A16B4801F02D
:1025F000B3FC422404E075A1684801F0ADFC52240C
:102600006149C88800F0A8FB5F48C0884FF6FF7397
:10261000624A78210090282001F0EBF831207149BE
:102620000870594880894FF6FF7188422BD0564870
:1026300080895549C989884225D1534880895249A2
:10264000098A88421FD1504880891F2805D15AA184
:10265000524801F081FC422404E05CA14F4801F0A3
:102660007BFC52244849888900F076FB46488089E3
:102670004FF6FF73494A78210090282001F0B9F8FD
:10268000312058490870404800884FF6FF71884251
:102690002BD03D48C0883C490988884225D13A481A
:1026A00000883949898988421FD1374800881F2806
:1026B00005D141A1394801F04FFC422404E043A177
:1026C000364801F049FC52242F49088800F044FBA9
:1026D0002D4800884FF6FF73304A7821009028205B
:1026E00001F087F831203F490870274840884FF6AD
:1026F000FF7188422BD024480089234949888842A9
:1027000025D1214840882049C98988421FD11E48C7
:1027100040881F2805D128A1204801F01DFC422433
:1027200004E02AA11D4801F017FC522416494888EC
:1027300000F012FB144840884FF6FF73174A7821C7
:102740000090282001F055F83120264908700E48E5
:1027500080884FF6FF7188425FD00B4840890A4954
:102760008988884259D1084880880749098A88425F
:1027700053D1054880881F2838D10FA1074801F0A0
:10278000EBFB31E000C0024072C0072053636F7260
:102790006520426C6575203A2025640054C00720EE
:1027A00053636F726520526F756765203A20256408
:1027B000000000001EC007204A6F75657572204238
:1027C0006C65752061206761676E65004A6F75658D
:1027D000757220526F7567652061206761676E654D
:1027E0000000000020C00720422405E0AFF22401D1
:1027F000FE4801F0B1FB5224FD49888800F0ACFA94
:10280000FB4880884FF6FF73F84A78210090282013
:1028100000F0EFFF3120F7490870F54800884FF6C7
:10282000FF7188422DD0F2480089F1490988884219
:1028300027D1EF480088EE49098A884221D1EC4827
:1028400000881F2806D1AFF29001E84801F084FB10
:10285000422405E0AFF28C01E44801F07DFB5224F4
:10286000E349088800F078FAE14800884FF6FF73E2
:10287000DE4A78210090282000F0BBFF3120DD499E
:102880000870DB4880884FF6FF7188422DD0D84809
:102890000089D7498988884227D1D5488088D4497A
:1028A0008989884221D1D24880881F2806D1AFF279
:1028B000F801CE4801F050FB422405E0AFF2F401EC
:1028C000CA4801F049FB5224C949888800F044FAFB
:1028D000C74880884FF6FF73C44A782100902820AB
:1028E00000F087FF3120C3490870C14800884FF6C7
:1028F000FF71884233D0BE48408888422FD0BC4800
:10290000808888422BD0BA48C088884227D0B848EF
:102910000089884223D0B648408988421FD0B448F5
:10292000808988421BD0B248C089884217D0B048FD
:10293000008A884213D0B0A1AC4801F00DFB4FF2E1
:10294000DE7000F009FA4FF2DE700023A74A78210A
:1029500000905A2000F04DFF3120A6490870A5488C
:102960000078312822D1522C0FD1012201A9104622
:1029700001F0F5F99DF80400401CC0B2019001225D
:1029800001A9104601F0C0F910E0422C0ED101223D
:1029900002A9002001F0E3F99DF80800401CC0B234
:1029A0000290012202A9002001F0AEF93EBDFFF71E
:1029B000EBFC4FF47840924908804FF6FF708C4949
:1029C000088048808880C880088148818881C881C3
:1029D000088230208749087001F08CF900BF00BFE1
:1029E00000F05FFA01F0DEF9FFF7E1FC00F0E0FF34
:1029F00033E1844800783128FAD1302081490870C9
:102A000001F0D8F87B480078322817D14FF6FF70D4
:102A10007749088048808880C880088148818881FB
:102A2000C88108824FF47840754908801F2000F063
:102A300093F9FFF7BCFC30206E4908706D480078B0
:102A4000312802D132206B4908706A48007830285A
:102A5000CED16D480088B0F5167F14DD6A48008835
:102A6000B0F5AF6F0FDC69480088B0F57A7F0ADDFA
:102A700066480088B0F5C86F05DC0020FFF74AFD06
:102A8000FFF795FCE7E060480088B0F5AF6F15DD13
:102A90005D48008840F6980188420FDC5B4800885A
:102AA000B0F57A7F0ADD59480088B0F5C86F05DCBB
:102AB0000120FFF72FFDFFF77AFCCCE05248008899
:102AC000B0F5166F15DD5048008840F64851884231
:102AD0000FDC4E480088B0F57A7F0ADD4B4800884D
:102AE000B0F5C86F05DC0220FFF714FDFFF75FFCAF
:102AF000B1E045480088B0F5167F14DD42480088F3
:102B0000B0F5AF6F0FDC41480088B0F5C86F0ADD43
:102B10003E480088B0F5166F05DC0320FFF7FAFC8D
:102B2000FFF745FC97E038480088B0F5AF6F15DD3A
:102B30003548008840F6980188420FDC3348008809
:102B4000B0F5C86F0ADD31480088B0F5166F05DCB6
:102B50000420FFF7DFFCFFF72AFC7CE02A4800880E
:102B6000B0F5166F15DD2848008840F648518842B8
:102B70000FDC26480088B0F5C86F0ADD23480088BE
:102B8000B0F5166F05DC0520FFF7C4FCFFF70FFC5E
:102B900061E01D480088B0F5167F14DD1A480088F2
:102BA000B0F5AF6F0FDC19480088B0F5166F0ADD7D
:102BB00016480088B0F5486F05DC0620FFF7AAFC30
:102BC000FFF7F5FB47E010480088B0F5AF6F28DD50
:102BD0000D48008840F69801884222DC0B480088A6
:102BE000B0F5166F1DDD0948008811E054C00720BC
:102BF00072C0072020C007204567616C69746500BA
:102C00001EC0072014C0072008C007200AC00720E4
:102C1000B0F5486F05DC0720FFF77CFCFFF7C7FB2A
:102C200019E00F480088B0F5166F14DD0C480088D5
:102C300040F6485188420EDC0A480088B0F5166F0D
:102C400009DD08480088B0F5486F04DC0820FFF76C
:102C500061FCFFF7ACFBFFF77EFCCAE600BFFEE7B6
:102C600008C007200AC00720000200BF011EA0F113
:102C70000100FBD1704710B501224FF47001002014
:102C8000FDF756FD01224FF060711046FDF750FD33
:102C90004FF470010020FDF755FD4FF060710120E9
:102CA000FDF750FD10BD10B5222001F077FB10BDDF
:102CB00010B504464FF48000FE49C8618010886159
:102CC000204601F00FFB4FF40000FA49C8610120D3
:102CD00001F05AFB4FF40000F6498861401088610A
:102CE00010BDF5480088704730B5014601F01F045B
:102CF000C1F34513CA0AE50205EB43151544A8B212
:102D000030BD70B504460D46EB48008848F6891181
:102D1000884207D1A1B24E2001F060FBA9B24F203A
:102D200001F05CFBA1B2202001F058FBA9B22120E8
:102D300001F054FB70BD70B504460D46294620468F
:102D4000FFF7DFFFFFF7AFFF01F0E2FA064601F001
:102D5000DFFA0646304670BD70B5054600240021F6
:102D60000846FFF7CEFFFFF79EFF00BF03E02846AF
:102D7000FFF79EFF641CB4F5963FF8D370BD10B505
:102D8000CD48008848F68911884205D146F23001C5
:102D9000112001F023FB04E041F23001032001F097
:102DA0001DFB00210846FFF7ACFFFFF77CFF45F253
:102DB0005550FFF77DFF4AF6AA20FFF779FF002163
:102DC0000846FFF79EFF10BD2DE9F041BA48008884
:102DD00048F68911884204D041F23001032001F005
:102DE000FDFA002500210846FFF78BFFFFF75BFF88
:102DF000002405E02846FFF75BFF681C85B2641CD1
:102E0000B4F5963FF6D30025AB48008849F220314F
:102E1000884209D0A8480088491D884204D0A648A5
:102E20000088C91C884219D1002413E000260EE056
:102E300021463046FFF77FFF0746FFF755FF29463B
:102E40006A1C95B2884201D0BDE8F081761CF02E54
:102E5000EED3641CB4F5A07FE8D320E09648008848
:102E600044F23151884205D09348008848F68911D0
:102E7000884214D100240FE000260AE021463046A3
:102E8000FFF759FF29466A1C95B2884200D0DBE75C
:102E9000761CF02EF2D3641CB4F5A07FECD300BFF7
:102EA000D2E770B5FFF7E7FE40F2DC50FFF7DCFE3B
:102EB0000024204601F072FA01F02AFA054600BF0C
:102EC0007D480580008844F23151884221D07A48FB
:102ED000008847F2837188421BD07748008849F206
:102EE0002031884215D074480088491D884210D08E
:102EF00071480088C91C88420BD06F480088B0F523
:102F0000134F06D06C48008848F68911884200D0DB
:102F100070BD6948008849F22531884204D066486E
:102F20000088C91C88427DD11021E72001F056FAA3
:102F30000121002001F052FA4FF48071012001F0CC
:102F40004DFA4FF4E061022001F048FA41F2280105
:102F5000032001F043FA0021042001F03FFA40F27F
:102F60000721082001F03AFA0021092001F036FA81
:102F700000210A2001F032FA01210C2001F02EFA82
:102F800000210D2001F02AFA00210F2001F026FA7D
:102F90000021102001F022FA0721112001F01EFA71
:102FA0000021122001F01AFA0021132001F016FA74
:102FB0000F20FFF759FE41F29051102001F00EFA58
:102FC00040F22721112001F009FA0F20FFF74CFEF3
:102FD0009C21122001F002FA0F20FFF745FE4FF46A
:102FE000C851132001F0FAF92321292001F0F6F944
:102FF0000E212B2001F0F2F90F20FFF735FE002102
:10300000202001F0EBF90021212001F0E7F90F2049
:10301000FFF72AFE0721302001F0E0F940F20771A6
:10302000312000E08BE001F0D9F90621322001F0D7
:10303000D5F940F20471352001F0D0F941F6047160
:10304000362001F0CBF90421372001F0C7F9002127
:10305000382001F0C3F940F20671392001F0BEF9C1
:1030600040F201713C2001F0B9F90F213D2001F03F
:10307000B5F90F20FFF7F8FD0021502001F0AEF95F
:10308000EF21512001F0AAF90021522001F0A6F908
:1030900040F23F11532001F0A1F94FF42741602085
:1030A00001F09CF90121612001F098F900216A20CA
:1030B00004E0000000C0092022C0072001F08EF9C2
:1030C0000021802001F08AF90021812001F086F999
:1030D0000021822001F082F90021832001F07EF995
:1030E0000021842001F07AF90021852001F076F991
:1030F0001021902001F072F90021922001F06EF968
:103100000321932001F06AF94FF48871952001F0B2
:1031100065F90021972001F061F90021982001F064
:103120005DF940F23311072001F058F90021202009
:1031300001F054F90021212001F050F912E3FC487C
:10314000008849F22031884204D0F9480088B0F55F
:10315000134F7DD10021084601F040F900210120E4
:1031600001F03CF94FF4E061022001F037F941F23F
:103170001801032001F032F90021042001F02EF99A
:1031800040F20221082001F029F90021092001F074
:1031900025F900210A2001F021F901210C2001F07C
:1031A0001DF900210D2001F019F900210F2001F077
:1031B00015F90F20FFF758FD40F20111072001F02B
:1031C0000DF90F20FFF750FD4FF48651102001F04C
:1031D00005F90721112001F001F94FF4887112203F
:1031E00001F0FCF84FF43061132001F0F7F80021F2
:1031F000292001F0F3F844F210012B2001F0EEF841
:103200000021502001F0EAF8EF21512001F0E6F80A
:103210000021522001F0E2F840F23F11532001F06A
:10322000DDF84FF42741602001F0D8F8012161203A
:1032300001F0D4F800216A2001F0D0F800218020AC
:1032400001F0CCF80021812001F0C8F8002100E055
:103250002DE0822001F0C2F80021832001F0BEF8A9
:103260000021842001F0BAF80021852001F0B6F891
:103270001021902001F0B2F80021922001F0AEF868
:103280000121932001F0AAF84FF48871952001F0F4
:10329000A5F80021972001F0A1F80021982001F065
:1032A0009DF840F27311072001F098F85AE2A04807
:1032B000008844F2315188427DD10121002001F083
:1032C0008DF84FF4C561102001F088F80621122016
:1032D00001F084F840F63221132001F07FF84021FC
:1032E000112001F07BF85021152001F077F816210C
:1032F000122001F073F80F20FFF7B6FC45F2606171
:10330000102001F06BF80F20FFF7AEFC42F64E21C3
:10331000132001F063F80021012001F05FF84FF461
:103320004071022001F05AF841F23001032001F00F
:1033300055F840F20221082001F050F800210A203F
:1033400001F04CF80021302001F048F840F2024131
:10335000312001F043F84FF48371322001F03EF840
:103360004FF4E061332001F039F84FF482713420DA
:1033700001F034F840F20131352001F02FF840F22D
:103380000771362001F02AF840F20531372001F0AC
:1033900025F84FF40271382001F020F840F60B7147
:1033A000392001F01BF80F20FFF75EFC02214120BD
:1033B00001F014F800E037E04FF42741602001F0FD
:1033C0000DF80121612001F009F840F21911902057
:1033D00001F004F84FF48571922000F0FFFF042102
:1033E000932000F0FBFF4FF48071A02000F0F6FF67
:1033F0000F20FFF739FC0F20FFF736FC0F20FFF7F7
:1034000033FC0F20FFF730FC40F23311072000F0AF
:10341000E5FF0F20FFF728FC0021A02000F0DEFFD1
:103420001420FFF721FC9DE14148008847F2837199
:1034300088427CD10121FF2000F0D0FF0821F32039
:1034400000F0CCFF4FF48071012000F0C7FF4FF473
:10345000E061022000F0C2FF41F23001032000F0E1
:10346000BDFF40F20231082000F0B8FF40F2072112
:10347000082000F0B3FF0021092000F0AFFF002179
:103480000A2000F0ABFF0021102000F0A7FF05216B
:10349000112000F0A3FF0021122000F09FFF002167
:1034A000132000F09BFF1420FFF7DEFB41F2B02158
:1034B000102000F093FF1420FFF7D6FB0721112006
:1034C00000F08CFF1420FFF7CFFB8B21122000F0BF
:1034D00085FF1420FFF7C8FB4FF4B851132000F00C
:1034E0007DFF1420FFF7C0FB2221292000F076FF8A
:1034F0000021302000F072FF40F20771312000F00F
:103500006DFF40F20551322000F068FF40F20711D4
:10351000352000F063FF0821362000F05FFF002116
:10352000372000F05BFF40F20221382002E040E04B
:1035300022C0072000F052FF4FF48371392000F0C1
:103540004DFF40F202213C2000F048FF4FF4816122
:103550003D2000F043FF1420FFF786FB00215020A0
:1035600000F03CFFEF21512000F038FF00215220F5
:1035700000F034FF40F23F11532000F02FFF4FF4D2
:103580002741602000F02AFF0121612000F026FF82
:103590003321902000F022FF0B212B2000F01EFF92
:1035A00040F23311072000F019FF1420FFF75CFBF5
:1035B000D8E07148008848F689118842F8D1212165
:1035C000072000F00BFF0121002000F007FF23215E
:1035D000072000F003FF0021102000F0FFFE40F65E
:1035E000B830FFF741FB3321072000F0F7FE46F229
:1035F0007001112000F0F2FE4FF4C061022000F0D3
:10360000EDFE40F60401032000F0E8FE00210C204E
:1036100000F0E4FE40F60C010D2000F0DFFE4FF458
:1036200024510E2000F0DAFEB8211E2000F0D6FE54
:1036300042F63F31012000F0D1FE0021102000F0C1
:10364000CDFE0021052000F0C9FE0021062000F07B
:10365000C5FE4EF61C71162000F0C0FE0321172097
:1036600000F0BCFE40F23321072000F0B7FEC0217D
:103670000B2000F0B3FE00210F2000F0AFFE002170
:10368000412000F0ABFE0021422000F0A7FE002107
:10369000482000F0A3FE40F23F11492000F09EFEBA
:1036A00000214A2000F09AFE00214B2000F096FEF7
:1036B0004FF46F41442000F091FE0021452000F0BE
:1036C0008DFE40F23F11462000F088FE40F2077167
:1036D000302000F083FE4FF40171312000F07EFEB7
:1036E0004FF40171322000F079FE40F20251332094
:1036F00000F074FE40F20751342000F06FFE4FF4EA
:103700000171352000F06AFE4FF40171362000F09F
:1037100065FE40F20251372000F060FE40F20231B7
:103720003A2000F05BFE40F202313B2000F056FEF2
:103730000021232000F052FE0021242000F04EFE44
:103740004FF40041252000F049FE00214F2000F0F9
:1037500045FE00214E2000F041FEFFF710FB1F2028
:10376000FFF7FAFAFFF70BFBFFF72EFB1F20FFF71F
:10377000F3FA00BFFFF7CCBB22C007202DE9F84FBA
:1037800005460E46174698460095B14600242CE0A3
:10379000A7F12000244901EB001010F804A04946CD
:1037A0000098FFF7AEFA09F101001FFA80F9FFF760
:1037B0007AFA4FF0000B13E00AF0800020B11FFAF4
:1037C00088F0FFF775FA03E00A9988B2FFF770FAFC
:1037D0004FEA4A604FEA106A0BF1010000F0FF0B5C
:1037E000BBF1080FE8DB601CC4B2102CD0DBBDE8D5
:1037F000F88F2DE9F84305460E4614461F46DDF8BE
:1038000020800BE0CDF8008022783B4631462846E8
:10381000FFF7B4FF641C05F1080085B2207800288A
:10382000F0D1BDE8F8830000F04300002DE9F05F1F
:1038300081460D4617469846DDE90AABBAF1760F88
:1038400014D12C460EE021464846FFF75AFAFFF7FE
:103850002AFA002603E05846FFF72AFA761C464566
:10386000F9D9641CE819A042EDD214E02C460EE010
:1038700021464846FFF745FAFFF715FA002603E010
:103880005846FFF715FA761CBE42F9D9641C05EBC1
:103890000800A042ECD2BDE8F09F2DE9FC5F07468E
:1038A000884691461D46DDE90E4BDDE90C6ABAF10A
:1038B000010F08D168202B464A464146CDE9000B4E
:1038C0003846FFF7B3FF682033464A464146CDE904
:1038D00000043846FFF7AAFF762007EB0901CDE97F
:1038E0000004881B33462A464146FFF79FFF6820A5
:1038F000CDE9000408EB0500811B33464A463846F3
:10390000FFF794FF762033462A464146CDE900046E
:103910003846FFF78BFFBDE8FC9F000011B581B072
:103920000120EB49086101A808600022E948FDF781
:1039300027FDC4B22CB1E649C1F808D09DF80000BB
:103940001CBD0020FCE700B589B000208DF81C00EC
:1039500002208DF81E0000208DF81F008DF8200039
:1039600007208DF81D0007A8FDF77CF808208DF8CA
:103970001D0007A8FDF776F809208DF81D0007A89F
:10398000FDF770F808200190002002900390049049
:103990000590D148069001A8FDF75CFC01A9CD482F
:1039A000FDF7F7FB0121CB48FDF75FFC09B000BD37
:1039B0001CB500208DF802008DF804008DF803007E
:1039C00013208DF8010000208DF800006846FDF7F7
:1039D00049F800224FF400211046FCF71FFE012297
:1039E000D1040020FCF74DFE012240210020FCF70D
:1039F00015FE40210020FCF725FEFFF7A4FF012261
:103A000040210020FCF70AFE40210020FCF724FEA4
:103A10008020FFF783FF012240210020FCF7FEFDFC
:103A200040210020FCF70EFE1CBD2DE9F04196B0B0
:103A3000B5E000243EE0012240210020FCF7EEFD2D
:103A400040210020FCF708FED020FFF767FF002090
:103A5000FFF764FF4006000D11A921F81400902023
:103A6000FFF75CFF11A931F8141041EAE00011A939
:103A700021F814000020FFF751FF4006000D0CA9AB
:103A800021F814000020FFF749FF0CA931F81410A9
:103A900041EAE0000CA921F814008020FFF73EFF66
:103AA000012240210020FCF7B9FD40210020FCF755
:103AB000C9FD641C0A2CBED34FF6FF731D460026B9
:103AC000002700210022002032E00DF1440C3CF8D8
:103AD00010C09C4503D20DF1440C3CF810300DF1A0
:103AE000440C3CF810C0B44503D90DF1440C3CF82B
:103AF00010600DF1440C3CF810C061440DF1300C25
:103B00003CF810C0AC4503D20DF1300C3CF810501D
:103B10000DF1300C3CF810C0BC4503D90DF1300C50
:103B20003CF810700DF1300C3CF810C06244401CA1
:103B30000A28CAD3A1EB030CACEB0601A2EB050CDF
:103B4000ACEB0702C1F3CF0CDFF89081A8F800C0FE
:103B5000C2F3CF0CDFF88881A8F800C05F48028864
:103B600060A107A800F0F8F9404602885FA102A80A
:103B700000F0F2F91F2047F6FF7307AA4FF4917186
:103B800000900020FFF735FE1F2047F6FF7302AAC2
:103B90004FF4917100907820FFF72BFE00BF0020BA
:103BA000FCF764FD00F4002000283FF442AF16B09B
:103BB000BDE8F0812DE9F0418AB000243BE001220C
:103BC00040210020FCF72AFD40210020FCF744FDA5
:103BD000D020FFF7A3FE0020FFF7A0FE4006000D57
:103BE00005A921F814009020FFF798FE05A931F8E7
:103BF000141041EAE00005A921F814000020FFF7A5
:103C00008DFE4006000D2DF814000020FFF786FE03
:103C10003DF8141041EAE0002DF814008020FFF771
:103C20007DFE012240210020FCF7F8FC402100200D
:103C3000FCF708FD641C0A2CC1D34FF6FF731D4628
:103C40000026002700210022002028E00DF1140C9E
:103C50003CF810C09C4503D20DF1140C3CF8103018
:103C60000DF1140C3CF810C0B44503D90DF1140C3F
:103C70003CF810600DF1140C3CF810C061443DF8A4
:103C800010C0AC4501D23DF810503DF810C0BC4505
:103C900001D93DF810703DF810C06244401C0A285C
:103CA000D4D3A1EB030CACEB0601A2EB050CACEBFF
:103CB0000702C1F3CF0CDFF82480A8F800C0C2F3DC
:103CC000CF0CDFF81C80A8F800C00AB0BDE8F08176
:103CD00084C0072000000340801A060008C00720A7
:103CE0000AC00720583A202530346400593A20256C
:103CF0003034640010B529492948FDF7FCFD012145
:103D00002748FDF764FE10BDF0B5CBB005460F4661
:103D10001646502040EA25200090E8B28DF82C008D
:103D2000002404E0395D0BAA601C1154641CB442E9
:103D3000F8DB0BA8019000200390701C029000207B
:103D400004900590069003200790002008900990A9
:103D5000002269461248FEF745F84BB0F0BD70B539
:103D60008CB004460D461646E0B20090502040EA62
:103D700024200190CDF808D0002004900120039069
:103D80000595069603200890002009900A900022CD
:103D900001A90348FEF726F80CB070BD20A107006A
:103DA00000C0014010B588B00024022001218140EC
:103DB0004209920002F1E022C2F8001100BF012086
:103DC0008DF818001C208DF8190003208DF81A00BA
:103DD00000208DF81B008DF81C0006A8FCF742FEA1
:103DE00001208DF810004FF4FA70059004AA00210C
:103DF0001948FCF755FF00208DF8080001208DF8C8
:103E0000050000208DF806008DF8040005200390C1
:103E100001208DF8070001A90F48FDF73FF80121A7
:103E20000D48FCF7FDFF08B010BD0C480068401CB1
:103E30000A490860084600680A2809D1002008607D
:103E400007484069C0F3C04010B9312005490870E7
:103E500001200149086070470080004010C0072021
:103E600000C0092014C0072053EA020C00F069804A
:103E70002DE9F04B4FF00006002B1FBFB3FA83F57E
:103E800003FA05F424FA05F65E4012BF1643B2FAAF
:103E900082F502FA05F4C5F120051EBF22FA05FCE1
:103EA00044EA0C04203556EA044C4FEA144418BF87
:103EB000641C4FF000084FF00009904271EB030CB6
:103EC00039D3002919BFB1FA81F701FA07F6B0FA20
:103ED00080F700FA07F6C7F120071EBF20FA07FC9B
:103EE00046EA0C062037B6FBF4FCA7EB0507103FAB
:103EF00007F01F0BCBF120060CFA0BFB2CFA06F691
:103F000044BFB3460026202FA4BF5E464FF0000BEF
:103F10005BEA060C08BF4FF0010B19EB0B09ABFB7A
:103F2000027C48EB0608C01B06FB02CC0BFB03CC53
:103F300071EB0C01C1E70B46024641464846BDE81D
:103F4000F08B13B54FF000004FF00001AFF300808D
:103F5000BDE81C40704700000FB41CB5074B06AA13
:103F60007B4469460090059800F069F90020694695
:103F7000FCF7BFF91CBC5DF814FB00008FC3FFFF0A
:103F800070B5044685690068C10601D5302600E099
:103F90002026C00707D070BDD4E9012130469047E4
:103FA000206A401C20626D1EF6D570BD70B50446B7
:103FB00085690078C00707D170BDD4E901212020B0
:103FC0009047206A401C20626D1EF6D570BD00002F
:103FD0002DE9F0410646002410687529314616A5E2
:103FE00010D0AFF30080002802DA404213A507E0AA
:103FF00031688A0701D512A502E0490704D511A549
:10400000012401E0AFF3008000210A2206F1240719
:1040100009E0B0FBF2FCB0FBF2F302FB1C00303015
:1040200078541846491C0028F3D123462A463046C6
:10403000BDE8F04100F0A4B8000000002D00000031
:104040002B000000200000002DE9F05F89460446A7
:104050004FF0000ADFF824B1FB44C0F820A020464E
:10406000E168884700287DD0252806D0D4E90121C1
:104070009047206A401C2062F1E700255F462046F9
:10408000E16888472028064607DB312E05D2B8199B
:1040900010F8200C08B10543F1E7A80701D525F079
:1040A0000405C4F81CA00027C4F818A02A2E09D0C3
:1040B000304600F010F938B304EB8708303EC8F8FA
:1040C000186019E059F8041B204604EB870291613F
:1040D000E1688847012F064618D1E069002820DAF8
:1040E00025F020051DE0D8F8180000EB800006EB55
:1040F00040003038C8F818002046E1688847064676
:1041000000F0E9F80028EED1012F0AD02E2E08D1B8
:104110002046E16888477F1C0646022F45F02005AF
:10412000C4DBA069002803DA404245F00105A06124
:10413000E80701D025F01005A6B1A6F14100192825
:1041400002D8203645F400654A46314620462560AF
:104150004D46FBF7F5FF60B1012807D0ED1D25F0B6
:10416000070000E007E000F1080978E705F104091D
:1041700075E730467AE7206ABDE8F09F84090000C1
:104180002DE9F0470D4699469246044600F1240871
:104190000168880604D5E06921F01001216000E083
:1041A0000120A84201DD471B00E00027A1697A1920
:1041B00002EB0900081AA0612078C00602D420464C
:1041C000FFF7DEFE002608E0D4E901211AF8060018
:1041D0009047206A401C761C20624E45F4DB207814
:1041E000C0060AD52046FFF7CBFE06E0D4E9012140
:1041F00030209047206A401C2062381EA7F101073A
:10420000F4DC07E0D4E9012118F805009047206AA2
:10421000401C2062281EA5F10105F3DC2046FFF7B3
:10422000C5FE2078000602D50220BDE8F0870120F7
:10423000FBE7000001694A1C02610878704700B57D
:104240008FB0CDE901310021059105497944CDE9CF
:10425000031011466846FFF7F7FE0FB000BD0000DF
:10426000E5FFFFFF754600F02BF8AE4605006946F6
:10427000534620F00700854618B020B5FBF786FFAF
:10428000BDE820404FF000064FF000074FF0000857
:104290004FF0000B21F00701AC46ACE8C009ACE8D8
:1042A000C009ACE8C009ACE8C0098D46704710B53C
:1042B0000446AFF300802046BDE81040FBF752BF34
:1042C000004870479CC0072001491820ABBEFEE79C
:1042D00026000200704730380A2801D201207047BA
:1042E000002070470949096C41F0FF01074A116439
:1042F0004FF0807191634900D163114648654FF4D6
:1043000000019163D16301125165704700C009201B
:1043100070B500254FF480001A49C861801088618B
:10432000C00088618010C861012000F02DF800BF36
:104330001448006C20F0FF00124908644FF08070B0
:10434000C8634000C863322000F01EF80D485430A6
:1043500004784FF000700B498863322000F014F8A5
:10436000084890F8540040EA04244FF08070054952
:10437000886300BF2546C0108861400088612846D8
:1043800070BD000000C0092008B5009000BF009972
:104390004A1E00920029FAD108BD000010B504465B
:1043A0004FF480000C49C8618010C86140008861EA
:1043B0002046FFF797FF4620FFF7E6FF4FF4000087
:1043C0000549C8610120FFF7DFFF4FF400000249F3
:1043D00088614010886110BD00C0092070B5054695
:1043E0000C462846FFF7DAFF2046FEF761FC70BD59
:1043F00000000000000000000000000000000000BD
:1044000000000000183C3C3C181800181800000080
:10441000000000006666660000000000000000006A
:104420000000000036367F3636367F363600000014
:10443000000018183C666030180C06663C1818001E
:1044400000000070D8DA760C18306E5B1B0E00008E
:1044500000000000386C6C38606F66663B0000003E
:104460000000000018181800000000000000000004
:10447000000000000C1818303030303018180C00D4
:10448000000000003018180C0C0C0C0C1818300030
:10449000000000000000361C7F1C360000000000F9
:1044A00000000000000018187E181800000000002E
:1044B000000000000000000000001C1C0C180000A0
:1044C000000000000000007E00000000000000006E
:1044D000000000000000000000001C1C00000000A4
:1044E00000000006060C0C18183030606000000058
:1044F0000000001E333737333B3B331E0000000003
:104500000000000C1C7C0C0C0C0C0C0C00000000BF
:104510000000003C6666060C1830607E000000005B
:104520000000003C6666061C0666663C0000000053
:104530000000003030363636667F06060000000088
:104540000000007E6060607C06060C7800000000C1
:104550000000001C18307C666666663C00000000A7
:104560000000007E060C0C181830303000000000EF
:104570000000003C6666763C6E66663C000000000B
:104580000000003C666666663E0C183800000000BD
:1045900000000000001C1C0000001C1C00000000AB
:1045A00000000000001C1C0000001C1C0C18000077
:1045B000000000060C18306030180C0600000000E7
:1045C0000000000000007E007E00000000000000EF
:1045D0000000006030180C060C183060000000006D
:1045E0000000003C66660C18180018180000000057
:1045F0000000007EC3C3CFDBDBCFC07F0000000024
:10460000000000183C6666667E6666660000000074
:104610000000007C6666667C6666667C00000000C2
:104620000000003C666660606066663C000000005A
:10463000000000786C66666666666C7800000000B4
:104640000000007E6060607C6060607E00000000B2
:104650000000007E6060607C6060606000000000C0
:104660000000003C666660606E66663E000000000A
:10467000000000666666667E66666666000000008C
:104680000000003C181818181818183C000000000A
:1046900000001E0C0C0C0C0CCCCCCC7800000000E4
:1046A00000000066666C6C786C6C6666000000004A
:1046B00000000060606060606060607E000000007C
:1046C0000000006363776B6B6B6363630000000043
:1046D0000000006363737B6F676363630000000027
:1046E0000000003C666666666666663C0000000088
:1046F0000000007C6666667C606060600000000010
:104700000000003C666666666666663C0C06000055
:104710000000007C6666667C6C66666600000000D1
:104720000000003C666030180C06663C000000008B
:104730000000007E1818181818181818000000003B
:1047400000000066666666666666663C00000000FD
:10475000000000666666666666663C18000000003B
:104760000000006363636B6B6B363636000000003D
:1047700000000066663418182C66666600000000AB
:10478000000000666666663C1818181800000000F5
:104790000000007E06060C183060607E00000000FD
:1047A0000000003C303030303030303030303C00B1
:1047B0000000006060303018180C0C060600000085
:1047C0000000003C0C0C0C0C0C0C0C0C0C0C3C00F9
:1047D00000183C660000000000000000000000001F
:1047E0000000000000000000000000000000FF00CA
:1047F0000038180C0000000000000000000000005D
:1048000000000000003C06063E66663E0000000018
:1048100000000060607C66666666667C00000000E2
:1048200000000000003C66606060663C0000000024
:1048300000000006063E66666666663E00000000F2
:1048400000000000003C66667E60603C00000000E6
:104850000000001E3030307E30303030000000006C
:1048600000000000003E66666666663E06067C0046
:1048700000000060607C6666666666660000000098
:1048800000001818007818181818187E000000008A
:1048900000000C0C003C0C0C0C0C0C0C0C0C7800EC
:1048A000000000606066666C786C66660000000060
:1048B00000000078181818181818187E000000005A
:1048C00000000000007E6B6B6B6B6B6300000000F0
:1048D00000000000007C66666666666600000000F8
:1048E00000000000003C66666666663C0000000052
:1048F00000000000007C66666666667C60606000A2
:1049000000000000003E66666666663E060606001B
:104910000000000000666E706060606000000000D3
:1049200000000000003E60603C06067C00000000C5
:1049300000000030307E30303030301E000000008B
:1049400000000000006666666666663E00000000C5
:10495000000000000066666666663C180000000005
:104960000000000000636B6B6B6B363600000000CC
:10497000000000000066663C183C6666000000000F
:1049800000000000006666666666663C0C18F00073
:1049900000000000007E060C1830607E0000000061
:1049A0000000000C1818183060301818180C00009F
:1049B00000000018181818181818181818181800D7
:1049C000000000301818180C060C181818300000D9
:1049D00000000071DB8E00000000000000000000FD
:1049E00004000008000000000000000200010000B8
:1049F00010000000244A000000C00720240000002E
:104A000008010000244A000000000010000200001D
:104A100024010000484A000024C00720DC000000F8
:104A20002401000000E1F505000000000000000086
:104A30000000000000000000000000000000000076
:084A400000000000000000006E
:04000005000000CD2A
:00000001FF
